{
	"TicketProtocol.sol": {
		"Ticket": {
			"abi": [
				{
					"inputs": [
						{
							"internalType": "string",
							"name": "_eventName",
							"type": "string"
						},
						{
							"internalType": "uint256",
							"name": "_originalPrice",
							"type": "uint256"
						},
						{
							"internalType": "address",
							"name": "_organizer",
							"type": "address"
						}
					],
					"stateMutability": "nonpayable",
					"type": "constructor"
				},
				{
					"inputs": [],
					"name": "buyTicket",
					"outputs": [],
					"stateMutability": "payable",
					"type": "function"
				},
				{
					"inputs": [],
					"name": "currentOwner",
					"outputs": [
						{
							"internalType": "address",
							"name": "",
							"type": "address"
						}
					],
					"stateMutability": "view",
					"type": "function"
				},
				{
					"inputs": [],
					"name": "eventName",
					"outputs": [
						{
							"internalType": "string",
							"name": "",
							"type": "string"
						}
					],
					"stateMutability": "view",
					"type": "function"
				},
				{
					"inputs": [],
					"name": "eventOrganizer",
					"outputs": [
						{
							"internalType": "address",
							"name": "",
							"type": "address"
						}
					],
					"stateMutability": "view",
					"type": "function"
				},
				{
					"inputs": [],
					"name": "isForSale",
					"outputs": [
						{
							"internalType": "bool",
							"name": "",
							"type": "bool"
						}
					],
					"stateMutability": "view",
					"type": "function"
				},
				{
					"inputs": [
						{
							"internalType": "uint256",
							"name": "_price",
							"type": "uint256"
						}
					],
					"name": "listForSale",
					"outputs": [],
					"stateMutability": "nonpayable",
					"type": "function"
				},
				{
					"inputs": [],
					"name": "maxResalePrice",
					"outputs": [
						{
							"internalType": "uint256",
							"name": "",
							"type": "uint256"
						}
					],
					"stateMutability": "view",
					"type": "function"
				},
				{
					"inputs": [],
					"name": "originalPrice",
					"outputs": [
						{
							"internalType": "uint256",
							"name": "",
							"type": "uint256"
						}
					],
					"stateMutability": "view",
					"type": "function"
				},
				{
					"inputs": [],
					"name": "salePrice",
					"outputs": [
						{
							"internalType": "uint256",
							"name": "",
							"type": "uint256"
						}
					],
					"stateMutability": "view",
					"type": "function"
				}
			],
			"devdoc": {
				"kind": "dev",
				"methods": {},
				"title": "Individual Event Ticket Contract",
				"version": 1
			},
			"evm": {
				"assembly": "    /* \"TicketProtocol.sol\":153:2032  contract Ticket {... */\n  mstore(0x40, 0x80)\n    /* \"TicketProtocol.sol\":662:1096  constructor(string memory _eventName, uint256 _originalPrice, address _organizer) {... */\n  callvalue\n  dup1\n  iszero\n  tag_1\n  jumpi\n  revert(0x00, 0x00)\ntag_1:\n  pop\n  mload(0x40)\n  sub(codesize, bytecodeSize)\n  dup1\n  bytecodeSize\n  dup4\n  codecopy\n  dup2\n  dup2\n  add\n  0x40\n  mstore\n  dup2\n  add\n  swap1\n  tag_2\n  swap2\n  swap1\n  tag_3\n  jump\t// in\ntag_2:\n    /* \"TicketProtocol.sol\":772:782  _organizer */\n  dup1\n    /* \"TicketProtocol.sol\":755:769  eventOrganizer */\n  0x01\n  0x00\n    /* \"TicketProtocol.sol\":755:782  eventOrganizer = _organizer */\n  0x0100\n  exp\n  dup2\n  sload\n  dup2\n  0xffffffffffffffffffffffffffffffffffffffff\n  mul\n  not\n  and\n  swap1\n  dup4\n  0xffffffffffffffffffffffffffffffffffffffff\n  and\n  mul\n  or\n  swap1\n  sstore\n  pop\n    /* \"TicketProtocol.sol\":808:818  _organizer */\n  dup1\n    /* \"TicketProtocol.sol\":793:805  currentOwner */\n  0x00\n  0x00\n    /* \"TicketProtocol.sol\":793:818  currentOwner = _organizer */\n  0x0100\n  exp\n  dup2\n  sload\n  dup2\n  0xffffffffffffffffffffffffffffffffffffffff\n  mul\n  not\n  and\n  swap1\n  dup4\n  0xffffffffffffffffffffffffffffffffffffffff\n  and\n  mul\n  or\n  swap1\n  sstore\n  pop\n    /* \"TicketProtocol.sol\":868:878  _eventName */\n  dup3\n    /* \"TicketProtocol.sol\":856:865  eventName */\n  0x02\n    /* \"TicketProtocol.sol\":856:878  eventName = _eventName */\n  swap1\n  dup2\n  tag_6\n  swap2\n  swap1\n  tag_7\n  jump\t// in\ntag_6:\n  pop\n    /* \"TicketProtocol.sol\":905:919  _originalPrice */\n  dup2\n    /* \"TicketProtocol.sol\":889:902  originalPrice */\n  0x03\n    /* \"TicketProtocol.sol\":889:919  originalPrice = _originalPrice */\n  dup2\n  swap1\n  sstore\n  pop\n    /* \"TicketProtocol.sol\":1056:1059  100 */\n  0x64\n    /* \"TicketProtocol.sol\":1051:1053  10 */\n  0x0a\n    /* \"TicketProtocol.sol\":1034:1048  _originalPrice */\n  dup4\n    /* \"TicketProtocol.sol\":1034:1053  _originalPrice * 10 */\n  tag_8\n  swap2\n  swap1\n  tag_9\n  jump\t// in\ntag_8:\n    /* \"TicketProtocol.sol\":1034:1059  _originalPrice * 10 / 100 */\n  tag_10\n  swap2\n  swap1\n  tag_11\n  jump\t// in\ntag_10:\n    /* \"TicketProtocol.sol\":1016:1030  _originalPrice */\n  dup3\n    /* \"TicketProtocol.sol\":1016:1060  _originalPrice + (_originalPrice * 10 / 100) */\n  tag_12\n  swap2\n  swap1\n  tag_13\n  jump\t// in\ntag_12:\n    /* \"TicketProtocol.sol\":999:1013  maxResalePrice */\n  0x04\n    /* \"TicketProtocol.sol\":999:1060  maxResalePrice = _originalPrice + (_originalPrice * 10 / 100) */\n  dup2\n  swap1\n  sstore\n  pop\n    /* \"TicketProtocol.sol\":1083:1088  false */\n  0x00\n    /* \"TicketProtocol.sol\":1071:1080  isForSale */\n  0x05\n  0x00\n    /* \"TicketProtocol.sol\":1071:1088  isForSale = false */\n  0x0100\n  exp\n  dup2\n  sload\n  dup2\n  0xff\n  mul\n  not\n  and\n  swap1\n  dup4\n  iszero\n  iszero\n  mul\n  or\n  swap1\n  sstore\n  pop\n    /* \"TicketProtocol.sol\":662:1096  constructor(string memory _eventName, uint256 _originalPrice, address _organizer) {... */\n  pop\n  pop\n  pop\n    /* \"TicketProtocol.sol\":153:2032  contract Ticket {... */\n  jump(tag_14)\n    /* \"#utility.yul\":7:82   */\ntag_15:\n    /* \"#utility.yul\":40:46   */\n  0x00\n    /* \"#utility.yul\":73:75   */\n  0x40\n    /* \"#utility.yul\":67:76   */\n  mload\n    /* \"#utility.yul\":57:76   */\n  swap1\n  pop\n    /* \"#utility.yul\":7:82   */\n  swap1\n  jump\t// out\n    /* \"#utility.yul\":88:205   */\ntag_16:\n    /* \"#utility.yul\":197:198   */\n  0x00\n    /* \"#utility.yul\":194:195   */\n  0x00\n    /* \"#utility.yul\":187:199   */\n  revert\n    /* \"#utility.yul\":211:328   */\ntag_17:\n    /* \"#utility.yul\":320:321   */\n  0x00\n    /* \"#utility.yul\":317:318   */\n  0x00\n    /* \"#utility.yul\":310:322   */\n  revert\n    /* \"#utility.yul\":334:451   */\ntag_18:\n    /* \"#utility.yul\":443:444   */\n  0x00\n    /* \"#utility.yul\":440:441   */\n  0x00\n    /* \"#utility.yul\":433:445   */\n  revert\n    /* \"#utility.yul\":457:574   */\ntag_19:\n    /* \"#utility.yul\":566:567   */\n  0x00\n    /* \"#utility.yul\":563:564   */\n  0x00\n    /* \"#utility.yul\":556:568   */\n  revert\n    /* \"#utility.yul\":580:682   */\ntag_20:\n    /* \"#utility.yul\":621:627   */\n  0x00\n    /* \"#utility.yul\":672:674   */\n  0x1f\n    /* \"#utility.yul\":668:675   */\n  not\n    /* \"#utility.yul\":663:665   */\n  0x1f\n    /* \"#utility.yul\":656:661   */\n  dup4\n    /* \"#utility.yul\":652:666   */\n  add\n    /* \"#utility.yul\":648:676   */\n  and\n    /* \"#utility.yul\":638:676   */\n  swap1\n  pop\n    /* \"#utility.yul\":580:682   */\n  swap2\n  swap1\n  pop\n  jump\t// out\n    /* \"#utility.yul\":688:868   */\ntag_21:\n    /* \"#utility.yul\":736:813   */\n  0x4e487b7100000000000000000000000000000000000000000000000000000000\n    /* \"#utility.yul\":733:734   */\n  0x00\n    /* \"#utility.yul\":726:814   */\n  mstore\n    /* \"#utility.yul\":833:837   */\n  0x41\n    /* \"#utility.yul\":830:831   */\n  0x04\n    /* \"#utility.yul\":823:838   */\n  mstore\n    /* \"#utility.yul\":857:861   */\n  0x24\n    /* \"#utility.yul\":854:855   */\n  0x00\n    /* \"#utility.yul\":847:862   */\n  revert\n    /* \"#utility.yul\":874:1155   */\ntag_22:\n    /* \"#utility.yul\":957:984   */\n  tag_64\n    /* \"#utility.yul\":979:983   */\n  dup3\n    /* \"#utility.yul\":957:984   */\n  tag_20\n  jump\t// in\ntag_64:\n    /* \"#utility.yul\":949:955   */\n  dup2\n    /* \"#utility.yul\":945:985   */\n  add\n    /* \"#utility.yul\":1087:1093   */\n  dup2\n    /* \"#utility.yul\":1075:1085   */\n  dup2\n    /* \"#utility.yul\":1072:1094   */\n  lt\n    /* \"#utility.yul\":1051:1069   */\n  0xffffffffffffffff\n    /* \"#utility.yul\":1039:1049   */\n  dup3\n    /* \"#utility.yul\":1036:1070   */\n  gt\n    /* \"#utility.yul\":1033:1095   */\n  or\n    /* \"#utility.yul\":1030:1118   */\n  iszero\n  tag_65\n  jumpi\n    /* \"#utility.yul\":1098:1116   */\n  tag_66\n  tag_21\n  jump\t// in\ntag_66:\n    /* \"#utility.yul\":1030:1118   */\ntag_65:\n    /* \"#utility.yul\":1138:1148   */\n  dup1\n    /* \"#utility.yul\":1134:1136   */\n  0x40\n    /* \"#utility.yul\":1127:1149   */\n  mstore\n    /* \"#utility.yul\":917:1155   */\n  pop\n    /* \"#utility.yul\":874:1155   */\n  pop\n  pop\n  jump\t// out\n    /* \"#utility.yul\":1161:1290   */\ntag_23:\n    /* \"#utility.yul\":1195:1201   */\n  0x00\n    /* \"#utility.yul\":1222:1242   */\n  tag_68\n  tag_15\n  jump\t// in\ntag_68:\n    /* \"#utility.yul\":1212:1242   */\n  swap1\n  pop\n    /* \"#utility.yul\":1251:1284   */\n  tag_69\n    /* \"#utility.yul\":1279:1283   */\n  dup3\n    /* \"#utility.yul\":1271:1277   */\n  dup3\n    /* \"#utility.yul\":1251:1284   */\n  tag_22\n  jump\t// in\ntag_69:\n    /* \"#utility.yul\":1161:1290   */\n  swap2\n  swap1\n  pop\n  jump\t// out\n    /* \"#utility.yul\":1296:1604   */\ntag_24:\n    /* \"#utility.yul\":1358:1362   */\n  0x00\n    /* \"#utility.yul\":1448:1466   */\n  0xffffffffffffffff\n    /* \"#utility.yul\":1440:1446   */\n  dup3\n    /* \"#utility.yul\":1437:1467   */\n  gt\n    /* \"#utility.yul\":1434:1490   */\n  iszero\n  tag_71\n  jumpi\n    /* \"#utility.yul\":1470:1488   */\n  tag_72\n  tag_21\n  jump\t// in\ntag_72:\n    /* \"#utility.yul\":1434:1490   */\ntag_71:\n    /* \"#utility.yul\":1508:1537   */\n  tag_73\n    /* \"#utility.yul\":1530:1536   */\n  dup3\n    /* \"#utility.yul\":1508:1537   */\n  tag_20\n  jump\t// in\ntag_73:\n    /* \"#utility.yul\":1500:1537   */\n  swap1\n  pop\n    /* \"#utility.yul\":1592:1596   */\n  0x20\n    /* \"#utility.yul\":1586:1590   */\n  dup2\n    /* \"#utility.yul\":1582:1597   */\n  add\n    /* \"#utility.yul\":1574:1597   */\n  swap1\n  pop\n    /* \"#utility.yul\":1296:1604   */\n  swap2\n  swap1\n  pop\n  jump\t// out\n    /* \"#utility.yul\":1610:1749   */\ntag_25:\n    /* \"#utility.yul\":1699:1705   */\n  dup3\n    /* \"#utility.yul\":1694:1697   */\n  dup2\n    /* \"#utility.yul\":1689:1692   */\n  dup4\n    /* \"#utility.yul\":1683:1706   */\n  mcopy\n    /* \"#utility.yul\":1740:1741   */\n  0x00\n    /* \"#utility.yul\":1731:1737   */\n  dup4\n    /* \"#utility.yul\":1726:1729   */\n  dup4\n    /* \"#utility.yul\":1722:1738   */\n  add\n    /* \"#utility.yul\":1715:1742   */\n  mstore\n    /* \"#utility.yul\":1610:1749   */\n  pop\n  pop\n  pop\n  jump\t// out\n    /* \"#utility.yul\":1755:2189   */\ntag_26:\n    /* \"#utility.yul\":1844:1849   */\n  0x00\n    /* \"#utility.yul\":1869:1935   */\n  tag_76\n    /* \"#utility.yul\":1885:1934   */\n  tag_77\n    /* \"#utility.yul\":1927:1933   */\n  dup5\n    /* \"#utility.yul\":1885:1934   */\n  tag_24\n  jump\t// in\ntag_77:\n    /* \"#utility.yul\":1869:1935   */\n  tag_23\n  jump\t// in\ntag_76:\n    /* \"#utility.yul\":1860:1935   */\n  swap1\n  pop\n    /* \"#utility.yul\":1958:1964   */\n  dup3\n    /* \"#utility.yul\":1951:1956   */\n  dup2\n    /* \"#utility.yul\":1944:1965   */\n  mstore\n    /* \"#utility.yul\":1996:2000   */\n  0x20\n    /* \"#utility.yul\":1989:1994   */\n  dup2\n    /* \"#utility.yul\":1985:2001   */\n  add\n    /* \"#utility.yul\":2034:2037   */\n  dup5\n    /* \"#utility.yul\":2025:2031   */\n  dup5\n    /* \"#utility.yul\":2020:2023   */\n  dup5\n    /* \"#utility.yul\":2016:2032   */\n  add\n    /* \"#utility.yul\":2013:2038   */\n  gt\n    /* \"#utility.yul\":2010:2122   */\n  iszero\n  tag_78\n  jumpi\n    /* \"#utility.yul\":2041:2120   */\n  tag_79\n  tag_19\n  jump\t// in\ntag_79:\n    /* \"#utility.yul\":2010:2122   */\ntag_78:\n    /* \"#utility.yul\":2131:2183   */\n  tag_80\n    /* \"#utility.yul\":2176:2182   */\n  dup5\n    /* \"#utility.yul\":2171:2174   */\n  dup3\n    /* \"#utility.yul\":2166:2169   */\n  dup6\n    /* \"#utility.yul\":2131:2183   */\n  tag_25\n  jump\t// in\ntag_80:\n    /* \"#utility.yul\":1850:2189   */\n  pop\n    /* \"#utility.yul\":1755:2189   */\n  swap4\n  swap3\n  pop\n  pop\n  pop\n  jump\t// out\n    /* \"#utility.yul\":2209:2564   */\ntag_27:\n    /* \"#utility.yul\":2276:2281   */\n  0x00\n    /* \"#utility.yul\":2325:2328   */\n  dup3\n    /* \"#utility.yul\":2318:2322   */\n  0x1f\n    /* \"#utility.yul\":2310:2316   */\n  dup4\n    /* \"#utility.yul\":2306:2323   */\n  add\n    /* \"#utility.yul\":2302:2329   */\n  slt\n    /* \"#utility.yul\":2292:2414   */\n  tag_82\n  jumpi\n    /* \"#utility.yul\":2333:2412   */\n  tag_83\n  tag_18\n  jump\t// in\ntag_83:\n    /* \"#utility.yul\":2292:2414   */\ntag_82:\n    /* \"#utility.yul\":2443:2449   */\n  dup2\n    /* \"#utility.yul\":2437:2450   */\n  mload\n    /* \"#utility.yul\":2468:2558   */\n  tag_84\n    /* \"#utility.yul\":2554:2557   */\n  dup5\n    /* \"#utility.yul\":2546:2552   */\n  dup3\n    /* \"#utility.yul\":2539:2543   */\n  0x20\n    /* \"#utility.yul\":2531:2537   */\n  dup7\n    /* \"#utility.yul\":2527:2544   */\n  add\n    /* \"#utility.yul\":2468:2558   */\n  tag_26\n  jump\t// in\ntag_84:\n    /* \"#utility.yul\":2459:2558   */\n  swap2\n  pop\n    /* \"#utility.yul\":2282:2564   */\n  pop\n    /* \"#utility.yul\":2209:2564   */\n  swap3\n  swap2\n  pop\n  pop\n  jump\t// out\n    /* \"#utility.yul\":2570:2647   */\ntag_28:\n    /* \"#utility.yul\":2607:2614   */\n  0x00\n    /* \"#utility.yul\":2636:2641   */\n  dup2\n    /* \"#utility.yul\":2625:2641   */\n  swap1\n  pop\n    /* \"#utility.yul\":2570:2647   */\n  swap2\n  swap1\n  pop\n  jump\t// out\n    /* \"#utility.yul\":2653:2775   */\ntag_29:\n    /* \"#utility.yul\":2726:2750   */\n  tag_87\n    /* \"#utility.yul\":2744:2749   */\n  dup2\n    /* \"#utility.yul\":2726:2750   */\n  tag_28\n  jump\t// in\ntag_87:\n    /* \"#utility.yul\":2719:2724   */\n  dup2\n    /* \"#utility.yul\":2716:2751   */\n  eq\n    /* \"#utility.yul\":2706:2769   */\n  tag_88\n  jumpi\n    /* \"#utility.yul\":2765:2766   */\n  0x00\n    /* \"#utility.yul\":2762:2763   */\n  0x00\n    /* \"#utility.yul\":2755:2767   */\n  revert\n    /* \"#utility.yul\":2706:2769   */\ntag_88:\n    /* \"#utility.yul\":2653:2775   */\n  pop\n  jump\t// out\n    /* \"#utility.yul\":2781:2924   */\ntag_30:\n    /* \"#utility.yul\":2838:2843   */\n  0x00\n    /* \"#utility.yul\":2869:2875   */\n  dup2\n    /* \"#utility.yul\":2863:2876   */\n  mload\n    /* \"#utility.yul\":2854:2876   */\n  swap1\n  pop\n    /* \"#utility.yul\":2885:2918   */\n  tag_90\n    /* \"#utility.yul\":2912:2917   */\n  dup2\n    /* \"#utility.yul\":2885:2918   */\n  tag_29\n  jump\t// in\ntag_90:\n    /* \"#utility.yul\":2781:2924   */\n  swap3\n  swap2\n  pop\n  pop\n  jump\t// out\n    /* \"#utility.yul\":2930:3056   */\ntag_31:\n    /* \"#utility.yul\":2967:2974   */\n  0x00\n    /* \"#utility.yul\":3007:3049   */\n  0xffffffffffffffffffffffffffffffffffffffff\n    /* \"#utility.yul\":3000:3005   */\n  dup3\n    /* \"#utility.yul\":2996:3050   */\n  and\n    /* \"#utility.yul\":2985:3050   */\n  swap1\n  pop\n    /* \"#utility.yul\":2930:3056   */\n  swap2\n  swap1\n  pop\n  jump\t// out\n    /* \"#utility.yul\":3062:3158   */\ntag_32:\n    /* \"#utility.yul\":3099:3106   */\n  0x00\n    /* \"#utility.yul\":3128:3152   */\n  tag_93\n    /* \"#utility.yul\":3146:3151   */\n  dup3\n    /* \"#utility.yul\":3128:3152   */\n  tag_31\n  jump\t// in\ntag_93:\n    /* \"#utility.yul\":3117:3152   */\n  swap1\n  pop\n    /* \"#utility.yul\":3062:3158   */\n  swap2\n  swap1\n  pop\n  jump\t// out\n    /* \"#utility.yul\":3164:3286   */\ntag_33:\n    /* \"#utility.yul\":3237:3261   */\n  tag_95\n    /* \"#utility.yul\":3255:3260   */\n  dup2\n    /* \"#utility.yul\":3237:3261   */\n  tag_32\n  jump\t// in\ntag_95:\n    /* \"#utility.yul\":3230:3235   */\n  dup2\n    /* \"#utility.yul\":3227:3262   */\n  eq\n    /* \"#utility.yul\":3217:3280   */\n  tag_96\n  jumpi\n    /* \"#utility.yul\":3276:3277   */\n  0x00\n    /* \"#utility.yul\":3273:3274   */\n  0x00\n    /* \"#utility.yul\":3266:3278   */\n  revert\n    /* \"#utility.yul\":3217:3280   */\ntag_96:\n    /* \"#utility.yul\":3164:3286   */\n  pop\n  jump\t// out\n    /* \"#utility.yul\":3292:3435   */\ntag_34:\n    /* \"#utility.yul\":3349:3354   */\n  0x00\n    /* \"#utility.yul\":3380:3386   */\n  dup2\n    /* \"#utility.yul\":3374:3387   */\n  mload\n    /* \"#utility.yul\":3365:3387   */\n  swap1\n  pop\n    /* \"#utility.yul\":3396:3429   */\n  tag_98\n    /* \"#utility.yul\":3423:3428   */\n  dup2\n    /* \"#utility.yul\":3396:3429   */\n  tag_33\n  jump\t// in\ntag_98:\n    /* \"#utility.yul\":3292:3435   */\n  swap3\n  swap2\n  pop\n  pop\n  jump\t// out\n    /* \"#utility.yul\":3441:4277   */\ntag_3:\n    /* \"#utility.yul\":3539:3545   */\n  0x00\n    /* \"#utility.yul\":3547:3553   */\n  0x00\n    /* \"#utility.yul\":3555:3561   */\n  0x00\n    /* \"#utility.yul\":3604:3606   */\n  0x60\n    /* \"#utility.yul\":3592:3601   */\n  dup5\n    /* \"#utility.yul\":3583:3590   */\n  dup7\n    /* \"#utility.yul\":3579:3602   */\n  sub\n    /* \"#utility.yul\":3575:3607   */\n  slt\n    /* \"#utility.yul\":3572:3691   */\n  iszero\n  tag_100\n  jumpi\n    /* \"#utility.yul\":3610:3689   */\n  tag_101\n  tag_16\n  jump\t// in\ntag_101:\n    /* \"#utility.yul\":3572:3691   */\ntag_100:\n    /* \"#utility.yul\":3751:3752   */\n  0x00\n    /* \"#utility.yul\":3740:3749   */\n  dup5\n    /* \"#utility.yul\":3736:3753   */\n  add\n    /* \"#utility.yul\":3730:3754   */\n  mload\n    /* \"#utility.yul\":3781:3799   */\n  0xffffffffffffffff\n    /* \"#utility.yul\":3773:3779   */\n  dup2\n    /* \"#utility.yul\":3770:3800   */\n  gt\n    /* \"#utility.yul\":3767:3884   */\n  iszero\n  tag_102\n  jumpi\n    /* \"#utility.yul\":3803:3882   */\n  tag_103\n  tag_17\n  jump\t// in\ntag_103:\n    /* \"#utility.yul\":3767:3884   */\ntag_102:\n    /* \"#utility.yul\":3908:3982   */\n  tag_104\n    /* \"#utility.yul\":3974:3981   */\n  dup7\n    /* \"#utility.yul\":3965:3971   */\n  dup3\n    /* \"#utility.yul\":3954:3963   */\n  dup8\n    /* \"#utility.yul\":3950:3972   */\n  add\n    /* \"#utility.yul\":3908:3982   */\n  tag_27\n  jump\t// in\ntag_104:\n    /* \"#utility.yul\":3898:3982   */\n  swap4\n  pop\n    /* \"#utility.yul\":3701:3992   */\n  pop\n    /* \"#utility.yul\":4031:4033   */\n  0x20\n    /* \"#utility.yul\":4057:4121   */\n  tag_105\n    /* \"#utility.yul\":4113:4120   */\n  dup7\n    /* \"#utility.yul\":4104:4110   */\n  dup3\n    /* \"#utility.yul\":4093:4102   */\n  dup8\n    /* \"#utility.yul\":4089:4111   */\n  add\n    /* \"#utility.yul\":4057:4121   */\n  tag_30\n  jump\t// in\ntag_105:\n    /* \"#utility.yul\":4047:4121   */\n  swap3\n  pop\n    /* \"#utility.yul\":4002:4131   */\n  pop\n    /* \"#utility.yul\":4170:4172   */\n  0x40\n    /* \"#utility.yul\":4196:4260   */\n  tag_106\n    /* \"#utility.yul\":4252:4259   */\n  dup7\n    /* \"#utility.yul\":4243:4249   */\n  dup3\n    /* \"#utility.yul\":4232:4241   */\n  dup8\n    /* \"#utility.yul\":4228:4250   */\n  add\n    /* \"#utility.yul\":4196:4260   */\n  tag_34\n  jump\t// in\ntag_106:\n    /* \"#utility.yul\":4186:4260   */\n  swap2\n  pop\n    /* \"#utility.yul\":4141:4270   */\n  pop\n    /* \"#utility.yul\":3441:4277   */\n  swap3\n  pop\n  swap3\n  pop\n  swap3\n  jump\t// out\n    /* \"#utility.yul\":4283:4382   */\ntag_35:\n    /* \"#utility.yul\":4335:4341   */\n  0x00\n    /* \"#utility.yul\":4369:4374   */\n  dup2\n    /* \"#utility.yul\":4363:4375   */\n  mload\n    /* \"#utility.yul\":4353:4375   */\n  swap1\n  pop\n    /* \"#utility.yul\":4283:4382   */\n  swap2\n  swap1\n  pop\n  jump\t// out\n    /* \"#utility.yul\":4388:4568   */\ntag_36:\n    /* \"#utility.yul\":4436:4513   */\n  0x4e487b7100000000000000000000000000000000000000000000000000000000\n    /* \"#utility.yul\":4433:4434   */\n  0x00\n    /* \"#utility.yul\":4426:4514   */\n  mstore\n    /* \"#utility.yul\":4533:4537   */\n  0x22\n    /* \"#utility.yul\":4530:4531   */\n  0x04\n    /* \"#utility.yul\":4523:4538   */\n  mstore\n    /* \"#utility.yul\":4557:4561   */\n  0x24\n    /* \"#utility.yul\":4554:4555   */\n  0x00\n    /* \"#utility.yul\":4547:4562   */\n  revert\n    /* \"#utility.yul\":4574:4894   */\ntag_37:\n    /* \"#utility.yul\":4618:4624   */\n  0x00\n    /* \"#utility.yul\":4655:4656   */\n  0x02\n    /* \"#utility.yul\":4649:4653   */\n  dup3\n    /* \"#utility.yul\":4645:4657   */\n  div\n    /* \"#utility.yul\":4635:4657   */\n  swap1\n  pop\n    /* \"#utility.yul\":4702:4703   */\n  0x01\n    /* \"#utility.yul\":4696:4700   */\n  dup3\n    /* \"#utility.yul\":4692:4704   */\n  and\n    /* \"#utility.yul\":4723:4741   */\n  dup1\n    /* \"#utility.yul\":4713:4794   */\n  tag_110\n  jumpi\n    /* \"#utility.yul\":4779:4783   */\n  0x7f\n    /* \"#utility.yul\":4771:4777   */\n  dup3\n    /* \"#utility.yul\":4767:4784   */\n  and\n    /* \"#utility.yul\":4757:4784   */\n  swap2\n  pop\n    /* \"#utility.yul\":4713:4794   */\ntag_110:\n    /* \"#utility.yul\":4841:4843   */\n  0x20\n    /* \"#utility.yul\":4833:4839   */\n  dup3\n    /* \"#utility.yul\":4830:4844   */\n  lt\n    /* \"#utility.yul\":4810:4828   */\n  dup2\n    /* \"#utility.yul\":4807:4845   */\n  sub\n    /* \"#utility.yul\":4804:4888   */\n  tag_111\n  jumpi\n    /* \"#utility.yul\":4860:4878   */\n  tag_112\n  tag_36\n  jump\t// in\ntag_112:\n    /* \"#utility.yul\":4804:4888   */\ntag_111:\n    /* \"#utility.yul\":4625:4894   */\n  pop\n    /* \"#utility.yul\":4574:4894   */\n  swap2\n  swap1\n  pop\n  jump\t// out\n    /* \"#utility.yul\":4900:5041   */\ntag_38:\n    /* \"#utility.yul\":4949:4953   */\n  0x00\n    /* \"#utility.yul\":4972:4975   */\n  dup2\n    /* \"#utility.yul\":4964:4975   */\n  swap1\n  pop\n    /* \"#utility.yul\":4995:4998   */\n  dup2\n    /* \"#utility.yul\":4992:4993   */\n  0x00\n    /* \"#utility.yul\":4985:4999   */\n  mstore\n    /* \"#utility.yul\":5029:5033   */\n  0x20\n    /* \"#utility.yul\":5026:5027   */\n  0x00\n    /* \"#utility.yul\":5016:5034   */\n  keccak256\n    /* \"#utility.yul\":5008:5034   */\n  swap1\n  pop\n    /* \"#utility.yul\":4900:5041   */\n  swap2\n  swap1\n  pop\n  jump\t// out\n    /* \"#utility.yul\":5047:5140   */\ntag_39:\n    /* \"#utility.yul\":5084:5090   */\n  0x00\n    /* \"#utility.yul\":5131:5133   */\n  0x20\n    /* \"#utility.yul\":5126:5128   */\n  0x1f\n    /* \"#utility.yul\":5119:5124   */\n  dup4\n    /* \"#utility.yul\":5115:5129   */\n  add\n    /* \"#utility.yul\":5111:5134   */\n  div\n    /* \"#utility.yul\":5101:5134   */\n  swap1\n  pop\n    /* \"#utility.yul\":5047:5140   */\n  swap2\n  swap1\n  pop\n  jump\t// out\n    /* \"#utility.yul\":5146:5253   */\ntag_40:\n    /* \"#utility.yul\":5190:5198   */\n  0x00\n    /* \"#utility.yul\":5240:5245   */\n  dup3\n    /* \"#utility.yul\":5234:5238   */\n  dup3\n    /* \"#utility.yul\":5230:5246   */\n  shl\n    /* \"#utility.yul\":5209:5246   */\n  swap1\n  pop\n    /* \"#utility.yul\":5146:5253   */\n  swap3\n  swap2\n  pop\n  pop\n  jump\t// out\n    /* \"#utility.yul\":5259:5652   */\ntag_41:\n    /* \"#utility.yul\":5328:5334   */\n  0x00\n    /* \"#utility.yul\":5378:5379   */\n  0x08\n    /* \"#utility.yul\":5366:5376   */\n  dup4\n    /* \"#utility.yul\":5362:5380   */\n  mul\n    /* \"#utility.yul\":5401:5498   */\n  tag_117\n    /* \"#utility.yul\":5431:5497   */\n  0xffffffffffffffffffffffffffffffffffffffffffffffffffffffffffffffff\n    /* \"#utility.yul\":5420:5429   */\n  dup3\n    /* \"#utility.yul\":5401:5498   */\n  tag_40\n  jump\t// in\ntag_117:\n    /* \"#utility.yul\":5519:5558   */\n  tag_118\n    /* \"#utility.yul\":5549:5557   */\n  dup7\n    /* \"#utility.yul\":5538:5547   */\n  dup4\n    /* \"#utility.yul\":5519:5558   */\n  tag_40\n  jump\t// in\ntag_118:\n    /* \"#utility.yul\":5507:5558   */\n  swap6\n  pop\n    /* \"#utility.yul\":5591:5595   */\n  dup1\n    /* \"#utility.yul\":5587:5596   */\n  not\n    /* \"#utility.yul\":5580:5585   */\n  dup5\n    /* \"#utility.yul\":5576:5597   */\n  and\n    /* \"#utility.yul\":5567:5597   */\n  swap4\n  pop\n    /* \"#utility.yul\":5640:5644   */\n  dup1\n    /* \"#utility.yul\":5630:5638   */\n  dup7\n    /* \"#utility.yul\":5626:5645   */\n  and\n    /* \"#utility.yul\":5619:5624   */\n  dup5\n    /* \"#utility.yul\":5616:5646   */\n  or\n    /* \"#utility.yul\":5606:5646   */\n  swap3\n  pop\n    /* \"#utility.yul\":5335:5652   */\n  pop\n  pop\n    /* \"#utility.yul\":5259:5652   */\n  swap4\n  swap3\n  pop\n  pop\n  pop\n  jump\t// out\n    /* \"#utility.yul\":5658:5718   */\ntag_42:\n    /* \"#utility.yul\":5686:5689   */\n  0x00\n    /* \"#utility.yul\":5707:5712   */\n  dup2\n    /* \"#utility.yul\":5700:5712   */\n  swap1\n  pop\n    /* \"#utility.yul\":5658:5718   */\n  swap2\n  swap1\n  pop\n  jump\t// out\n    /* \"#utility.yul\":5724:5866   */\ntag_43:\n    /* \"#utility.yul\":5774:5783   */\n  0x00\n    /* \"#utility.yul\":5807:5860   */\n  tag_121\n    /* \"#utility.yul\":5825:5859   */\n  tag_122\n    /* \"#utility.yul\":5834:5858   */\n  tag_123\n    /* \"#utility.yul\":5852:5857   */\n  dup5\n    /* \"#utility.yul\":5834:5858   */\n  tag_28\n  jump\t// in\ntag_123:\n    /* \"#utility.yul\":5825:5859   */\n  tag_42\n  jump\t// in\ntag_122:\n    /* \"#utility.yul\":5807:5860   */\n  tag_28\n  jump\t// in\ntag_121:\n    /* \"#utility.yul\":5794:5860   */\n  swap1\n  pop\n    /* \"#utility.yul\":5724:5866   */\n  swap2\n  swap1\n  pop\n  jump\t// out\n    /* \"#utility.yul\":5872:5947   */\ntag_44:\n    /* \"#utility.yul\":5915:5918   */\n  0x00\n    /* \"#utility.yul\":5936:5941   */\n  dup2\n    /* \"#utility.yul\":5929:5941   */\n  swap1\n  pop\n    /* \"#utility.yul\":5872:5947   */\n  swap2\n  swap1\n  pop\n  jump\t// out\n    /* \"#utility.yul\":5953:6222   */\ntag_45:\n    /* \"#utility.yul\":6063:6102   */\n  tag_126\n    /* \"#utility.yul\":6094:6101   */\n  dup4\n    /* \"#utility.yul\":6063:6102   */\n  tag_43\n  jump\t// in\ntag_126:\n    /* \"#utility.yul\":6124:6215   */\n  tag_127\n    /* \"#utility.yul\":6173:6214   */\n  tag_128\n    /* \"#utility.yul\":6197:6213   */\n  dup3\n    /* \"#utility.yul\":6173:6214   */\n  tag_44\n  jump\t// in\ntag_128:\n    /* \"#utility.yul\":6165:6171   */\n  dup5\n    /* \"#utility.yul\":6158:6162   */\n  dup5\n    /* \"#utility.yul\":6152:6163   */\n  sload\n    /* \"#utility.yul\":6124:6215   */\n  tag_41\n  jump\t// in\ntag_127:\n    /* \"#utility.yul\":6118:6122   */\n  dup3\n    /* \"#utility.yul\":6111:6216   */\n  sstore\n    /* \"#utility.yul\":6029:6222   */\n  pop\n    /* \"#utility.yul\":5953:6222   */\n  pop\n  pop\n  pop\n  jump\t// out\n    /* \"#utility.yul\":6228:6301   */\ntag_46:\n    /* \"#utility.yul\":6273:6276   */\n  0x00\n    /* \"#utility.yul\":6294:6295   */\n  0x00\n    /* \"#utility.yul\":6287:6295   */\n  swap1\n  pop\n    /* \"#utility.yul\":6228:6301   */\n  swap1\n  jump\t// out\n    /* \"#utility.yul\":6307:6496   */\ntag_47:\n    /* \"#utility.yul\":6384:6416   */\n  tag_131\n  tag_46\n  jump\t// in\ntag_131:\n    /* \"#utility.yul\":6425:6490   */\n  tag_132\n    /* \"#utility.yul\":6483:6489   */\n  dup2\n    /* \"#utility.yul\":6475:6481   */\n  dup5\n    /* \"#utility.yul\":6469:6473   */\n  dup5\n    /* \"#utility.yul\":6425:6490   */\n  tag_45\n  jump\t// in\ntag_132:\n    /* \"#utility.yul\":6360:6496   */\n  pop\n    /* \"#utility.yul\":6307:6496   */\n  pop\n  pop\n  jump\t// out\n    /* \"#utility.yul\":6502:6688   */\ntag_48:\n    /* \"#utility.yul\":6562:6682   */\ntag_134:\n    /* \"#utility.yul\":6579:6582   */\n  dup2\n    /* \"#utility.yul\":6572:6577   */\n  dup2\n    /* \"#utility.yul\":6569:6583   */\n  lt\n    /* \"#utility.yul\":6562:6682   */\n  iszero\n  tag_136\n  jumpi\n    /* \"#utility.yul\":6633:6672   */\n  tag_137\n    /* \"#utility.yul\":6670:6671   */\n  0x00\n    /* \"#utility.yul\":6663:6668   */\n  dup3\n    /* \"#utility.yul\":6633:6672   */\n  tag_47\n  jump\t// in\ntag_137:\n    /* \"#utility.yul\":6606:6607   */\n  0x01\n    /* \"#utility.yul\":6599:6604   */\n  dup2\n    /* \"#utility.yul\":6595:6608   */\n  add\n    /* \"#utility.yul\":6586:6608   */\n  swap1\n  pop\n    /* \"#utility.yul\":6562:6682   */\n  jump(tag_134)\ntag_136:\n    /* \"#utility.yul\":6502:6688   */\n  pop\n  pop\n  jump\t// out\n    /* \"#utility.yul\":6694:7237   */\ntag_49:\n    /* \"#utility.yul\":6795:6797   */\n  0x1f\n    /* \"#utility.yul\":6790:6793   */\n  dup3\n    /* \"#utility.yul\":6787:6798   */\n  gt\n    /* \"#utility.yul\":6784:7230   */\n  iszero\n  tag_139\n  jumpi\n    /* \"#utility.yul\":6829:6867   */\n  tag_140\n    /* \"#utility.yul\":6861:6866   */\n  dup2\n    /* \"#utility.yul\":6829:6867   */\n  tag_38\n  jump\t// in\ntag_140:\n    /* \"#utility.yul\":6913:6942   */\n  tag_141\n    /* \"#utility.yul\":6931:6941   */\n  dup5\n    /* \"#utility.yul\":6913:6942   */\n  tag_39\n  jump\t// in\ntag_141:\n    /* \"#utility.yul\":6903:6911   */\n  dup2\n    /* \"#utility.yul\":6899:6943   */\n  add\n    /* \"#utility.yul\":7096:7098   */\n  0x20\n    /* \"#utility.yul\":7084:7094   */\n  dup6\n    /* \"#utility.yul\":7081:7099   */\n  lt\n    /* \"#utility.yul\":7078:7127   */\n  iszero\n  tag_142\n  jumpi\n    /* \"#utility.yul\":7117:7125   */\n  dup2\n    /* \"#utility.yul\":7102:7125   */\n  swap1\n  pop\n    /* \"#utility.yul\":7078:7127   */\ntag_142:\n    /* \"#utility.yul\":7140:7220   */\n  tag_143\n    /* \"#utility.yul\":7196:7218   */\n  tag_144\n    /* \"#utility.yul\":7214:7217   */\n  dup6\n    /* \"#utility.yul\":7196:7218   */\n  tag_39\n  jump\t// in\ntag_144:\n    /* \"#utility.yul\":7186:7194   */\n  dup4\n    /* \"#utility.yul\":7182:7219   */\n  add\n    /* \"#utility.yul\":7169:7180   */\n  dup3\n    /* \"#utility.yul\":7140:7220   */\n  tag_48\n  jump\t// in\ntag_143:\n    /* \"#utility.yul\":6799:7230   */\n  pop\n  pop\n    /* \"#utility.yul\":6784:7230   */\ntag_139:\n    /* \"#utility.yul\":6694:7237   */\n  pop\n  pop\n  pop\n  jump\t// out\n    /* \"#utility.yul\":7243:7360   */\ntag_50:\n    /* \"#utility.yul\":7297:7305   */\n  0x00\n    /* \"#utility.yul\":7347:7352   */\n  dup3\n    /* \"#utility.yul\":7341:7345   */\n  dup3\n    /* \"#utility.yul\":7337:7353   */\n  shr\n    /* \"#utility.yul\":7316:7353   */\n  swap1\n  pop\n    /* \"#utility.yul\":7243:7360   */\n  swap3\n  swap2\n  pop\n  pop\n  jump\t// out\n    /* \"#utility.yul\":7366:7535   */\ntag_51:\n    /* \"#utility.yul\":7410:7416   */\n  0x00\n    /* \"#utility.yul\":7443:7494   */\n  tag_147\n    /* \"#utility.yul\":7491:7492   */\n  0x00\n    /* \"#utility.yul\":7487:7493   */\n  not\n    /* \"#utility.yul\":7479:7484   */\n  dup5\n    /* \"#utility.yul\":7476:7477   */\n  0x08\n    /* \"#utility.yul\":7472:7485   */\n  mul\n    /* \"#utility.yul\":7443:7494   */\n  tag_50\n  jump\t// in\ntag_147:\n    /* \"#utility.yul\":7439:7495   */\n  not\n    /* \"#utility.yul\":7524:7528   */\n  dup1\n    /* \"#utility.yul\":7518:7522   */\n  dup4\n    /* \"#utility.yul\":7514:7529   */\n  and\n    /* \"#utility.yul\":7504:7529   */\n  swap2\n  pop\n    /* \"#utility.yul\":7417:7535   */\n  pop\n    /* \"#utility.yul\":7366:7535   */\n  swap3\n  swap2\n  pop\n  pop\n  jump\t// out\n    /* \"#utility.yul\":7540:7835   */\ntag_52:\n    /* \"#utility.yul\":7616:7620   */\n  0x00\n    /* \"#utility.yul\":7762:7791   */\n  tag_149\n    /* \"#utility.yul\":7787:7790   */\n  dup4\n    /* \"#utility.yul\":7781:7785   */\n  dup4\n    /* \"#utility.yul\":7762:7791   */\n  tag_51\n  jump\t// in\ntag_149:\n    /* \"#utility.yul\":7754:7791   */\n  swap2\n  pop\n    /* \"#utility.yul\":7824:7827   */\n  dup3\n    /* \"#utility.yul\":7821:7822   */\n  0x02\n    /* \"#utility.yul\":7817:7828   */\n  mul\n    /* \"#utility.yul\":7811:7815   */\n  dup3\n    /* \"#utility.yul\":7808:7829   */\n  or\n    /* \"#utility.yul\":7800:7829   */\n  swap1\n  pop\n    /* \"#utility.yul\":7540:7835   */\n  swap3\n  swap2\n  pop\n  pop\n  jump\t// out\n    /* \"#utility.yul\":7840:9235   */\ntag_7:\n    /* \"#utility.yul\":7957:7994   */\n  tag_151\n    /* \"#utility.yul\":7990:7993   */\n  dup3\n    /* \"#utility.yul\":7957:7994   */\n  tag_35\n  jump\t// in\ntag_151:\n    /* \"#utility.yul\":8059:8077   */\n  0xffffffffffffffff\n    /* \"#utility.yul\":8051:8057   */\n  dup2\n    /* \"#utility.yul\":8048:8078   */\n  gt\n    /* \"#utility.yul\":8045:8101   */\n  iszero\n  tag_152\n  jumpi\n    /* \"#utility.yul\":8081:8099   */\n  tag_153\n  tag_21\n  jump\t// in\ntag_153:\n    /* \"#utility.yul\":8045:8101   */\ntag_152:\n    /* \"#utility.yul\":8125:8163   */\n  tag_154\n    /* \"#utility.yul\":8157:8161   */\n  dup3\n    /* \"#utility.yul\":8151:8162   */\n  sload\n    /* \"#utility.yul\":8125:8163   */\n  tag_37\n  jump\t// in\ntag_154:\n    /* \"#utility.yul\":8210:8277   */\n  tag_155\n    /* \"#utility.yul\":8270:8276   */\n  dup3\n    /* \"#utility.yul\":8262:8268   */\n  dup3\n    /* \"#utility.yul\":8256:8260   */\n  dup6\n    /* \"#utility.yul\":8210:8277   */\n  tag_49\n  jump\t// in\ntag_155:\n    /* \"#utility.yul\":8304:8305   */\n  0x00\n    /* \"#utility.yul\":8328:8332   */\n  0x20\n    /* \"#utility.yul\":8315:8332   */\n  swap1\n  pop\n    /* \"#utility.yul\":8360:8362   */\n  0x1f\n    /* \"#utility.yul\":8352:8358   */\n  dup4\n    /* \"#utility.yul\":8349:8363   */\n  gt\n    /* \"#utility.yul\":8377:8378   */\n  0x01\n    /* \"#utility.yul\":8372:8990   */\n  dup2\n  eq\n  tag_157\n  jumpi\n    /* \"#utility.yul\":9034:9035   */\n  0x00\n    /* \"#utility.yul\":9051:9057   */\n  dup5\n    /* \"#utility.yul\":9048:9125   */\n  iszero\n  tag_158\n  jumpi\n    /* \"#utility.yul\":9100:9109   */\n  dup3\n    /* \"#utility.yul\":9095:9098   */\n  dup8\n    /* \"#utility.yul\":9091:9110   */\n  add\n    /* \"#utility.yul\":9085:9111   */\n  mload\n    /* \"#utility.yul\":9076:9111   */\n  swap1\n  pop\n    /* \"#utility.yul\":9048:9125   */\ntag_158:\n    /* \"#utility.yul\":9151:9218   */\n  tag_159\n    /* \"#utility.yul\":9211:9217   */\n  dup6\n    /* \"#utility.yul\":9204:9209   */\n  dup3\n    /* \"#utility.yul\":9151:9218   */\n  tag_52\n  jump\t// in\ntag_159:\n    /* \"#utility.yul\":9145:9149   */\n  dup7\n    /* \"#utility.yul\":9138:9219   */\n  sstore\n    /* \"#utility.yul\":9007:9229   */\n  pop\n    /* \"#utility.yul\":8342:9229   */\n  jump(tag_156)\n    /* \"#utility.yul\":8372:8990   */\ntag_157:\n    /* \"#utility.yul\":8424:8428   */\n  0x1f\n    /* \"#utility.yul\":8420:8429   */\n  not\n    /* \"#utility.yul\":8412:8418   */\n  dup5\n    /* \"#utility.yul\":8408:8430   */\n  and\n    /* \"#utility.yul\":8458:8495   */\n  tag_160\n    /* \"#utility.yul\":8490:8494   */\n  dup7\n    /* \"#utility.yul\":8458:8495   */\n  tag_38\n  jump\t// in\ntag_160:\n    /* \"#utility.yul\":8517:8518   */\n  0x00\n    /* \"#utility.yul\":8531:8739   */\ntag_161:\n    /* \"#utility.yul\":8545:8552   */\n  dup3\n    /* \"#utility.yul\":8542:8543   */\n  dup2\n    /* \"#utility.yul\":8539:8553   */\n  lt\n    /* \"#utility.yul\":8531:8739   */\n  iszero\n  tag_163\n  jumpi\n    /* \"#utility.yul\":8624:8633   */\n  dup5\n    /* \"#utility.yul\":8619:8622   */\n  dup10\n    /* \"#utility.yul\":8615:8634   */\n  add\n    /* \"#utility.yul\":8609:8635   */\n  mload\n    /* \"#utility.yul\":8601:8607   */\n  dup3\n    /* \"#utility.yul\":8594:8636   */\n  sstore\n    /* \"#utility.yul\":8675:8676   */\n  0x01\n    /* \"#utility.yul\":8667:8673   */\n  dup3\n    /* \"#utility.yul\":8663:8677   */\n  add\n    /* \"#utility.yul\":8653:8677   */\n  swap2\n  pop\n    /* \"#utility.yul\":8722:8724   */\n  0x20\n    /* \"#utility.yul\":8711:8720   */\n  dup6\n    /* \"#utility.yul\":8707:8725   */\n  add\n    /* \"#utility.yul\":8694:8725   */\n  swap5\n  pop\n    /* \"#utility.yul\":8568:8572   */\n  0x20\n    /* \"#utility.yul\":8565:8566   */\n  dup2\n    /* \"#utility.yul\":8561:8573   */\n  add\n    /* \"#utility.yul\":8556:8573   */\n  swap1\n  pop\n    /* \"#utility.yul\":8531:8739   */\n  jump(tag_161)\ntag_163:\n    /* \"#utility.yul\":8767:8773   */\n  dup7\n    /* \"#utility.yul\":8758:8765   */\n  dup4\n    /* \"#utility.yul\":8755:8774   */\n  lt\n    /* \"#utility.yul\":8752:8931   */\n  iszero\n  tag_164\n  jumpi\n    /* \"#utility.yul\":8825:8834   */\n  dup5\n    /* \"#utility.yul\":8820:8823   */\n  dup10\n    /* \"#utility.yul\":8816:8835   */\n  add\n    /* \"#utility.yul\":8810:8836   */\n  mload\n    /* \"#utility.yul\":8868:8916   */\n  tag_165\n    /* \"#utility.yul\":8910:8914   */\n  0x1f\n    /* \"#utility.yul\":8902:8908   */\n  dup10\n    /* \"#utility.yul\":8898:8915   */\n  and\n    /* \"#utility.yul\":8887:8896   */\n  dup3\n    /* \"#utility.yul\":8868:8916   */\n  tag_51\n  jump\t// in\ntag_165:\n    /* \"#utility.yul\":8860:8866   */\n  dup4\n    /* \"#utility.yul\":8853:8917   */\n  sstore\n    /* \"#utility.yul\":8775:8931   */\n  pop\n    /* \"#utility.yul\":8752:8931   */\ntag_164:\n    /* \"#utility.yul\":8977:8978   */\n  0x01\n    /* \"#utility.yul\":8973:8974   */\n  0x02\n    /* \"#utility.yul\":8965:8971   */\n  dup9\n    /* \"#utility.yul\":8961:8975   */\n  mul\n    /* \"#utility.yul\":8957:8979   */\n  add\n    /* \"#utility.yul\":8951:8955   */\n  dup9\n    /* \"#utility.yul\":8944:8980   */\n  sstore\n    /* \"#utility.yul\":8379:8990   */\n  pop\n  pop\n  pop\n    /* \"#utility.yul\":8342:9229   */\ntag_156:\n  pop\n    /* \"#utility.yul\":7932:9235   */\n  pop\n  pop\n  pop\n    /* \"#utility.yul\":7840:9235   */\n  pop\n  pop\n  jump\t// out\n    /* \"#utility.yul\":9241:9421   */\ntag_53:\n    /* \"#utility.yul\":9289:9366   */\n  0x4e487b7100000000000000000000000000000000000000000000000000000000\n    /* \"#utility.yul\":9286:9287   */\n  0x00\n    /* \"#utility.yul\":9279:9367   */\n  mstore\n    /* \"#utility.yul\":9386:9390   */\n  0x11\n    /* \"#utility.yul\":9383:9384   */\n  0x04\n    /* \"#utility.yul\":9376:9391   */\n  mstore\n    /* \"#utility.yul\":9410:9414   */\n  0x24\n    /* \"#utility.yul\":9407:9408   */\n  0x00\n    /* \"#utility.yul\":9400:9415   */\n  revert\n    /* \"#utility.yul\":9427:9837   */\ntag_9:\n    /* \"#utility.yul\":9467:9474   */\n  0x00\n    /* \"#utility.yul\":9490:9510   */\n  tag_168\n    /* \"#utility.yul\":9508:9509   */\n  dup3\n    /* \"#utility.yul\":9490:9510   */\n  tag_28\n  jump\t// in\ntag_168:\n    /* \"#utility.yul\":9485:9510   */\n  swap2\n  pop\n    /* \"#utility.yul\":9524:9544   */\n  tag_169\n    /* \"#utility.yul\":9542:9543   */\n  dup4\n    /* \"#utility.yul\":9524:9544   */\n  tag_28\n  jump\t// in\ntag_169:\n    /* \"#utility.yul\":9519:9544   */\n  swap3\n  pop\n    /* \"#utility.yul\":9579:9580   */\n  dup3\n    /* \"#utility.yul\":9576:9577   */\n  dup3\n    /* \"#utility.yul\":9572:9581   */\n  mul\n    /* \"#utility.yul\":9601:9631   */\n  tag_170\n    /* \"#utility.yul\":9619:9630   */\n  dup2\n    /* \"#utility.yul\":9601:9631   */\n  tag_28\n  jump\t// in\ntag_170:\n    /* \"#utility.yul\":9590:9631   */\n  swap2\n  pop\n    /* \"#utility.yul\":9780:9781   */\n  dup3\n    /* \"#utility.yul\":9771:9778   */\n  dup3\n    /* \"#utility.yul\":9767:9782   */\n  div\n    /* \"#utility.yul\":9764:9765   */\n  dup5\n    /* \"#utility.yul\":9761:9783   */\n  eq\n    /* \"#utility.yul\":9741:9742   */\n  dup4\n    /* \"#utility.yul\":9734:9743   */\n  iszero\n    /* \"#utility.yul\":9714:9797   */\n  or\n    /* \"#utility.yul\":9691:9830   */\n  tag_171\n  jumpi\n    /* \"#utility.yul\":9810:9828   */\n  tag_172\n  tag_53\n  jump\t// in\ntag_172:\n    /* \"#utility.yul\":9691:9830   */\ntag_171:\n    /* \"#utility.yul\":9475:9837   */\n  pop\n    /* \"#utility.yul\":9427:9837   */\n  swap3\n  swap2\n  pop\n  pop\n  jump\t// out\n    /* \"#utility.yul\":9843:10023   */\ntag_54:\n    /* \"#utility.yul\":9891:9968   */\n  0x4e487b7100000000000000000000000000000000000000000000000000000000\n    /* \"#utility.yul\":9888:9889   */\n  0x00\n    /* \"#utility.yul\":9881:9969   */\n  mstore\n    /* \"#utility.yul\":9988:9992   */\n  0x12\n    /* \"#utility.yul\":9985:9986   */\n  0x04\n    /* \"#utility.yul\":9978:9993   */\n  mstore\n    /* \"#utility.yul\":10012:10016   */\n  0x24\n    /* \"#utility.yul\":10009:10010   */\n  0x00\n    /* \"#utility.yul\":10002:10017   */\n  revert\n    /* \"#utility.yul\":10029:10214   */\ntag_11:\n    /* \"#utility.yul\":10069:10070   */\n  0x00\n    /* \"#utility.yul\":10086:10106   */\n  tag_175\n    /* \"#utility.yul\":10104:10105   */\n  dup3\n    /* \"#utility.yul\":10086:10106   */\n  tag_28\n  jump\t// in\ntag_175:\n    /* \"#utility.yul\":10081:10106   */\n  swap2\n  pop\n    /* \"#utility.yul\":10120:10140   */\n  tag_176\n    /* \"#utility.yul\":10138:10139   */\n  dup4\n    /* \"#utility.yul\":10120:10140   */\n  tag_28\n  jump\t// in\ntag_176:\n    /* \"#utility.yul\":10115:10140   */\n  swap3\n  pop\n    /* \"#utility.yul\":10159:10160   */\n  dup3\n    /* \"#utility.yul\":10149:10184   */\n  tag_177\n  jumpi\n    /* \"#utility.yul\":10164:10182   */\n  tag_178\n  tag_54\n  jump\t// in\ntag_178:\n    /* \"#utility.yul\":10149:10184   */\ntag_177:\n    /* \"#utility.yul\":10206:10207   */\n  dup3\n    /* \"#utility.yul\":10203:10204   */\n  dup3\n    /* \"#utility.yul\":10199:10208   */\n  div\n    /* \"#utility.yul\":10194:10208   */\n  swap1\n  pop\n    /* \"#utility.yul\":10029:10214   */\n  swap3\n  swap2\n  pop\n  pop\n  jump\t// out\n    /* \"#utility.yul\":10220:10411   */\ntag_13:\n    /* \"#utility.yul\":10260:10263   */\n  0x00\n    /* \"#utility.yul\":10279:10299   */\n  tag_180\n    /* \"#utility.yul\":10297:10298   */\n  dup3\n    /* \"#utility.yul\":10279:10299   */\n  tag_28\n  jump\t// in\ntag_180:\n    /* \"#utility.yul\":10274:10299   */\n  swap2\n  pop\n    /* \"#utility.yul\":10313:10333   */\n  tag_181\n    /* \"#utility.yul\":10331:10332   */\n  dup4\n    /* \"#utility.yul\":10313:10333   */\n  tag_28\n  jump\t// in\ntag_181:\n    /* \"#utility.yul\":10308:10333   */\n  swap3\n  pop\n    /* \"#utility.yul\":10356:10357   */\n  dup3\n    /* \"#utility.yul\":10353:10354   */\n  dup3\n    /* \"#utility.yul\":10349:10358   */\n  add\n    /* \"#utility.yul\":10342:10358   */\n  swap1\n  pop\n    /* \"#utility.yul\":10377:10380   */\n  dup1\n    /* \"#utility.yul\":10374:10375   */\n  dup3\n    /* \"#utility.yul\":10371:10381   */\n  gt\n    /* \"#utility.yul\":10368:10404   */\n  iszero\n  tag_182\n  jumpi\n    /* \"#utility.yul\":10384:10402   */\n  tag_183\n  tag_53\n  jump\t// in\ntag_183:\n    /* \"#utility.yul\":10368:10404   */\ntag_182:\n    /* \"#utility.yul\":10220:10411   */\n  swap3\n  swap2\n  pop\n  pop\n  jump\t// out\n    /* \"TicketProtocol.sol\":153:2032  contract Ticket {... */\ntag_14:\n  dataSize(sub_0)\n  dup1\n  dataOffset(sub_0)\n  0x00\n  codecopy\n  0x00\n  return\nstop\n\nsub_0: assembly {\n        /* \"TicketProtocol.sol\":153:2032  contract Ticket {... */\n      mstore(0x40, 0x80)\n      jumpi(tag_1, lt(calldatasize, 0x04))\n      shr(0xe0, calldataload(0x00))\n      dup1\n      0x8043c9c0\n      gt\n      tag_11\n      jumpi\n      dup1\n      0x8043c9c0\n      eq\n      tag_6\n      jumpi\n      dup1\n      0xb387ef92\n      eq\n      tag_7\n      jumpi\n      dup1\n      0xc7857fb5\n      eq\n      tag_8\n      jumpi\n      dup1\n      0xedca914c\n      eq\n      tag_9\n      jumpi\n      dup1\n      0xf51f96dd\n      eq\n      tag_10\n      jumpi\n      jump(tag_1)\n    tag_11:\n      dup1\n      0x20b08dc2\n      eq\n      tag_2\n      jumpi\n      dup1\n      0x39e9e8eb\n      eq\n      tag_3\n      jumpi\n      dup1\n      0x7514d7cb\n      eq\n      tag_4\n      jumpi\n      dup1\n      0x76a24f25\n      eq\n      tag_5\n      jumpi\n    tag_1:\n      revert(0x00, 0x00)\n        /* \"TicketProtocol.sol\":349:370  bool public isForSale */\n    tag_2:\n      callvalue\n      dup1\n      iszero\n      tag_12\n      jumpi\n      revert(0x00, 0x00)\n    tag_12:\n      pop\n      tag_13\n      tag_14\n      jump\t// in\n    tag_13:\n      mload(0x40)\n      tag_15\n      swap2\n      swap1\n      tag_16\n      jump\t// in\n    tag_15:\n      mload(0x40)\n      dup1\n      swap2\n      sub\n      swap1\n      return\n        /* \"TicketProtocol.sol\":311:340  uint256 public maxResalePrice */\n    tag_3:\n      callvalue\n      dup1\n      iszero\n      tag_17\n      jumpi\n      revert(0x00, 0x00)\n    tag_17:\n      pop\n      tag_18\n      tag_19\n      jump\t// in\n    tag_18:\n      mload(0x40)\n      tag_20\n      swap2\n      swap1\n      tag_21\n      jump\t// in\n    tag_20:\n      mload(0x40)\n      dup1\n      swap2\n      sub\n      swap1\n      return\n        /* \"TicketProtocol.sol\":210:239  address public eventOrganizer */\n    tag_4:\n      callvalue\n      dup1\n      iszero\n      tag_22\n      jumpi\n      revert(0x00, 0x00)\n    tag_22:\n      pop\n      tag_23\n      tag_24\n      jump\t// in\n    tag_23:\n      mload(0x40)\n      tag_25\n      swap2\n      swap1\n      tag_26\n      jump\t// in\n    tag_25:\n      mload(0x40)\n      dup1\n      swap2\n      sub\n      swap1\n      return\n        /* \"TicketProtocol.sol\":276:304  uint256 public originalPrice */\n    tag_5:\n      callvalue\n      dup1\n      iszero\n      tag_27\n      jumpi\n      revert(0x00, 0x00)\n    tag_27:\n      pop\n      tag_28\n      tag_29\n      jump\t// in\n    tag_28:\n      mload(0x40)\n      tag_30\n      swap2\n      swap1\n      tag_21\n      jump\t// in\n    tag_30:\n      mload(0x40)\n      dup1\n      swap2\n      sub\n      swap1\n      return\n        /* \"TicketProtocol.sol\":246:269  string public eventName */\n    tag_6:\n      callvalue\n      dup1\n      iszero\n      tag_31\n      jumpi\n      revert(0x00, 0x00)\n    tag_31:\n      pop\n      tag_32\n      tag_33\n      jump\t// in\n    tag_32:\n      mload(0x40)\n      tag_34\n      swap2\n      swap1\n      tag_35\n      jump\t// in\n    tag_34:\n      mload(0x40)\n      dup1\n      swap2\n      sub\n      swap1\n      return\n        /* \"TicketProtocol.sol\":176:203  address public currentOwner */\n    tag_7:\n      callvalue\n      dup1\n      iszero\n      tag_36\n      jumpi\n      revert(0x00, 0x00)\n    tag_36:\n      pop\n      tag_37\n      tag_38\n      jump\t// in\n    tag_37:\n      mload(0x40)\n      tag_39\n      swap2\n      swap1\n      tag_26\n      jump\t// in\n    tag_39:\n      mload(0x40)\n      dup1\n      swap2\n      sub\n      swap1\n      return\n        /* \"TicketProtocol.sol\":1152:1410  function listForSale(uint256 _price) external onlyOwner {... */\n    tag_8:\n      callvalue\n      dup1\n      iszero\n      tag_40\n      jumpi\n      revert(0x00, 0x00)\n    tag_40:\n      pop\n      tag_41\n      0x04\n      dup1\n      calldatasize\n      sub\n      dup2\n      add\n      swap1\n      tag_42\n      swap2\n      swap1\n      tag_43\n      jump\t// in\n    tag_42:\n      tag_44\n      jump\t// in\n    tag_41:\n      stop\n        /* \"TicketProtocol.sol\":1463:2029  function buyTicket() external payable {... */\n    tag_9:\n      tag_45\n      tag_46\n      jump\t// in\n    tag_45:\n      stop\n        /* \"TicketProtocol.sol\":377:401  uint256 public salePrice */\n    tag_10:\n      callvalue\n      dup1\n      iszero\n      tag_47\n      jumpi\n      revert(0x00, 0x00)\n    tag_47:\n      pop\n      tag_48\n      tag_49\n      jump\t// in\n    tag_48:\n      mload(0x40)\n      tag_50\n      swap2\n      swap1\n      tag_21\n      jump\t// in\n    tag_50:\n      mload(0x40)\n      dup1\n      swap2\n      sub\n      swap1\n      return\n        /* \"TicketProtocol.sol\":349:370  bool public isForSale */\n    tag_14:\n      0x05\n      0x00\n      swap1\n      sload\n      swap1\n      0x0100\n      exp\n      swap1\n      div\n      0xff\n      and\n      dup2\n      jump\t// out\n        /* \"TicketProtocol.sol\":311:340  uint256 public maxResalePrice */\n    tag_19:\n      sload(0x04)\n      dup2\n      jump\t// out\n        /* \"TicketProtocol.sol\":210:239  address public eventOrganizer */\n    tag_24:\n      0x01\n      0x00\n      swap1\n      sload\n      swap1\n      0x0100\n      exp\n      swap1\n      div\n      0xffffffffffffffffffffffffffffffffffffffff\n      and\n      dup2\n      jump\t// out\n        /* \"TicketProtocol.sol\":276:304  uint256 public originalPrice */\n    tag_29:\n      sload(0x03)\n      dup2\n      jump\t// out\n        /* \"TicketProtocol.sol\":246:269  string public eventName */\n    tag_33:\n      0x02\n      dup1\n      sload\n      tag_51\n      swap1\n      tag_52\n      jump\t// in\n    tag_51:\n      dup1\n      0x1f\n      add\n      0x20\n      dup1\n      swap2\n      div\n      mul\n      0x20\n      add\n      mload(0x40)\n      swap1\n      dup2\n      add\n      0x40\n      mstore\n      dup1\n      swap3\n      swap2\n      swap1\n      dup2\n      dup2\n      mstore\n      0x20\n      add\n      dup3\n      dup1\n      sload\n      tag_53\n      swap1\n      tag_52\n      jump\t// in\n    tag_53:\n      dup1\n      iszero\n      tag_54\n      jumpi\n      dup1\n      0x1f\n      lt\n      tag_55\n      jumpi\n      0x0100\n      dup1\n      dup4\n      sload\n      div\n      mul\n      dup4\n      mstore\n      swap2\n      0x20\n      add\n      swap2\n      jump(tag_54)\n    tag_55:\n      dup3\n      add\n      swap2\n      swap1\n      0x00\n      mstore\n      keccak256(0x00, 0x20)\n      swap1\n    tag_56:\n      dup2\n      sload\n      dup2\n      mstore\n      swap1\n      0x01\n      add\n      swap1\n      0x20\n      add\n      dup1\n      dup4\n      gt\n      tag_56\n      jumpi\n      dup3\n      swap1\n      sub\n      0x1f\n      and\n      dup3\n      add\n      swap2\n    tag_54:\n      pop\n      pop\n      pop\n      pop\n      pop\n      dup2\n      jump\t// out\n        /* \"TicketProtocol.sol\":176:203  address public currentOwner */\n    tag_38:\n      0x00\n      0x00\n      swap1\n      sload\n      swap1\n      0x0100\n      exp\n      swap1\n      div\n      0xffffffffffffffffffffffffffffffffffffffff\n      and\n      dup2\n      jump\t// out\n        /* \"TicketProtocol.sol\":1152:1410  function listForSale(uint256 _price) external onlyOwner {... */\n    tag_44:\n        /* \"TicketProtocol.sol\":544:556  currentOwner */\n      0x00\n      0x00\n      swap1\n      sload\n      swap1\n      0x0100\n      exp\n      swap1\n      div\n      0xffffffffffffffffffffffffffffffffffffffff\n      and\n        /* \"TicketProtocol.sol\":530:556  msg.sender == currentOwner */\n      0xffffffffffffffffffffffffffffffffffffffff\n      and\n        /* \"TicketProtocol.sol\":530:540  msg.sender */\n      caller\n        /* \"TicketProtocol.sol\":530:556  msg.sender == currentOwner */\n      0xffffffffffffffffffffffffffffffffffffffff\n      and\n      eq\n        /* \"TicketProtocol.sol\":522:581  require(msg.sender == currentOwner, \"Not the ticket owner\") */\n      tag_58\n      jumpi\n      mload(0x40)\n      0x08c379a000000000000000000000000000000000000000000000000000000000\n      dup2\n      mstore\n      0x04\n      add\n      tag_59\n      swap1\n      tag_60\n      jump\t// in\n    tag_59:\n      mload(0x40)\n      dup1\n      swap2\n      sub\n      swap1\n      revert\n    tag_58:\n        /* \"TicketProtocol.sol\":1288:1302  maxResalePrice */\n      sload(0x04)\n        /* \"TicketProtocol.sol\":1278:1284  _price */\n      dup2\n        /* \"TicketProtocol.sol\":1278:1302  _price <= maxResalePrice */\n      gt\n      iszero\n        /* \"TicketProtocol.sol\":1270:1346  require(_price <= maxResalePrice, \"Price exceeds 110% anti-scalping limit!\") */\n      tag_62\n      jumpi\n      mload(0x40)\n      0x08c379a000000000000000000000000000000000000000000000000000000000\n      dup2\n      mstore\n      0x04\n      add\n      tag_63\n      swap1\n      tag_64\n      jump\t// in\n    tag_63:\n      mload(0x40)\n      dup1\n      swap2\n      sub\n      swap1\n      revert\n    tag_62:\n        /* \"TicketProtocol.sol\":1369:1375  _price */\n      dup1\n        /* \"TicketProtocol.sol\":1357:1366  salePrice */\n      0x06\n        /* \"TicketProtocol.sol\":1357:1375  salePrice = _price */\n      dup2\n      swap1\n      sstore\n      pop\n        /* \"TicketProtocol.sol\":1398:1402  true */\n      0x01\n        /* \"TicketProtocol.sol\":1386:1395  isForSale */\n      0x05\n      0x00\n        /* \"TicketProtocol.sol\":1386:1402  isForSale = true */\n      0x0100\n      exp\n      dup2\n      sload\n      dup2\n      0xff\n      mul\n      not\n      and\n      swap1\n      dup4\n      iszero\n      iszero\n      mul\n      or\n      swap1\n      sstore\n      pop\n        /* \"TicketProtocol.sol\":1152:1410  function listForSale(uint256 _price) external onlyOwner {... */\n      pop\n      jump\t// out\n        /* \"TicketProtocol.sol\":1463:2029  function buyTicket() external payable {... */\n    tag_46:\n        /* \"TicketProtocol.sol\":1520:1529  isForSale */\n      0x05\n      0x00\n      swap1\n      sload\n      swap1\n      0x0100\n      exp\n      swap1\n      div\n      0xff\n      and\n        /* \"TicketProtocol.sol\":1512:1566  require(isForSale, \"Ticket is not currently for sale\") */\n      tag_66\n      jumpi\n      mload(0x40)\n      0x08c379a000000000000000000000000000000000000000000000000000000000\n      dup2\n      mstore\n      0x04\n      add\n      tag_67\n      swap1\n      tag_68\n      jump\t// in\n    tag_67:\n      mload(0x40)\n      dup1\n      swap2\n      sub\n      swap1\n      revert\n    tag_66:\n        /* \"TicketProtocol.sol\":1598:1607  salePrice */\n      sload(0x06)\n        /* \"TicketProtocol.sol\":1585:1594  msg.value */\n      callvalue\n        /* \"TicketProtocol.sol\":1585:1607  msg.value == salePrice */\n      eq\n        /* \"TicketProtocol.sol\":1577:1636  require(msg.value == salePrice, \"Incorrect payment amount\") */\n      tag_69\n      jumpi\n      mload(0x40)\n      0x08c379a000000000000000000000000000000000000000000000000000000000\n      dup2\n      mstore\n      0x04\n      add\n      tag_70\n      swap1\n      tag_71\n      jump\t// in\n    tag_70:\n      mload(0x40)\n      dup1\n      swap2\n      sub\n      swap1\n      revert\n    tag_69:\n        /* \"TicketProtocol.sol\":1649:1670  address previousOwner */\n      0x00\n        /* \"TicketProtocol.sol\":1673:1685  currentOwner */\n      0x00\n      0x00\n      swap1\n      sload\n      swap1\n      0x0100\n      exp\n      swap1\n      div\n      0xffffffffffffffffffffffffffffffffffffffff\n      and\n        /* \"TicketProtocol.sol\":1649:1685  address previousOwner = currentOwner */\n      swap1\n      pop\n        /* \"TicketProtocol.sol\":1744:1754  msg.sender */\n      caller\n        /* \"TicketProtocol.sol\":1729:1741  currentOwner */\n      0x00\n      0x00\n        /* \"TicketProtocol.sol\":1729:1754  currentOwner = msg.sender */\n      0x0100\n      exp\n      dup2\n      sload\n      dup2\n      0xffffffffffffffffffffffffffffffffffffffff\n      mul\n      not\n      and\n      swap1\n      dup4\n      0xffffffffffffffffffffffffffffffffffffffff\n      and\n      mul\n      or\n      swap1\n      sstore\n      pop\n        /* \"TicketProtocol.sol\":1777:1782  false */\n      0x00\n        /* \"TicketProtocol.sol\":1765:1774  isForSale */\n      0x05\n      0x00\n        /* \"TicketProtocol.sol\":1765:1782  isForSale = false */\n      0x0100\n      exp\n      dup2\n      sload\n      dup2\n      0xff\n      mul\n      not\n      and\n      swap1\n      dup4\n      iszero\n      iszero\n      mul\n      or\n      swap1\n      sstore\n      pop\n        /* \"TicketProtocol.sol\":1906:1915  bool sent */\n      0x00\n        /* \"TicketProtocol.sol\":1929:1942  previousOwner */\n      dup2\n        /* \"TicketProtocol.sol\":1921:1948  payable(previousOwner).call */\n      0xffffffffffffffffffffffffffffffffffffffff\n      and\n        /* \"TicketProtocol.sol\":1956:1965  msg.value */\n      callvalue\n        /* \"TicketProtocol.sol\":1921:1970  payable(previousOwner).call{value: msg.value}(\"\") */\n      mload(0x40)\n      tag_72\n      swap1\n      tag_73\n      jump\t// in\n    tag_72:\n      0x00\n      mload(0x40)\n      dup1\n      dup4\n      sub\n      dup2\n      dup6\n      dup8\n      gas\n      call\n      swap3\n      pop\n      pop\n      pop\n      returndatasize\n      dup1\n      0x00\n      dup2\n      eq\n      tag_76\n      jumpi\n      mload(0x40)\n      swap2\n      pop\n      and(add(returndatasize, 0x3f), not(0x1f))\n      dup3\n      add\n      0x40\n      mstore\n      returndatasize\n      dup3\n      mstore\n      returndatasize\n      0x00\n      0x20\n      dup5\n      add\n      returndatacopy\n      jump(tag_75)\n    tag_76:\n      0x60\n      swap2\n      pop\n    tag_75:\n      pop\n        /* \"TicketProtocol.sol\":1905:1970  (bool sent, ) = payable(previousOwner).call{value: msg.value}(\"\") */\n      pop\n      swap1\n      pop\n        /* \"TicketProtocol.sol\":1989:1993  sent */\n      dup1\n        /* \"TicketProtocol.sol\":1981:2021  require(sent, \"Payment transfer failed\") */\n      tag_77\n      jumpi\n      mload(0x40)\n      0x08c379a000000000000000000000000000000000000000000000000000000000\n      dup2\n      mstore\n      0x04\n      add\n      tag_78\n      swap1\n      tag_79\n      jump\t// in\n    tag_78:\n      mload(0x40)\n      dup1\n      swap2\n      sub\n      swap1\n      revert\n    tag_77:\n        /* \"TicketProtocol.sol\":1501:2029  {... */\n      pop\n      pop\n        /* \"TicketProtocol.sol\":1463:2029  function buyTicket() external payable {... */\n      jump\t// out\n        /* \"TicketProtocol.sol\":377:401  uint256 public salePrice */\n    tag_49:\n      sload(0x06)\n      dup2\n      jump\t// out\n        /* \"#utility.yul\":7:97   */\n    tag_80:\n        /* \"#utility.yul\":41:48   */\n      0x00\n        /* \"#utility.yul\":84:89   */\n      dup2\n        /* \"#utility.yul\":77:90   */\n      iszero\n        /* \"#utility.yul\":70:91   */\n      iszero\n        /* \"#utility.yul\":59:91   */\n      swap1\n      pop\n        /* \"#utility.yul\":7:97   */\n      swap2\n      swap1\n      pop\n      jump\t// out\n        /* \"#utility.yul\":103:212   */\n    tag_81:\n        /* \"#utility.yul\":184:205   */\n      tag_114\n        /* \"#utility.yul\":199:204   */\n      dup2\n        /* \"#utility.yul\":184:205   */\n      tag_80\n      jump\t// in\n    tag_114:\n        /* \"#utility.yul\":179:182   */\n      dup3\n        /* \"#utility.yul\":172:206   */\n      mstore\n        /* \"#utility.yul\":103:212   */\n      pop\n      pop\n      jump\t// out\n        /* \"#utility.yul\":218:428   */\n    tag_16:\n        /* \"#utility.yul\":305:309   */\n      0x00\n        /* \"#utility.yul\":343:345   */\n      0x20\n        /* \"#utility.yul\":332:341   */\n      dup3\n        /* \"#utility.yul\":328:346   */\n      add\n        /* \"#utility.yul\":320:346   */\n      swap1\n      pop\n        /* \"#utility.yul\":356:421   */\n      tag_116\n        /* \"#utility.yul\":418:419   */\n      0x00\n        /* \"#utility.yul\":407:416   */\n      dup4\n        /* \"#utility.yul\":403:420   */\n      add\n        /* \"#utility.yul\":394:400   */\n      dup5\n        /* \"#utility.yul\":356:421   */\n      tag_81\n      jump\t// in\n    tag_116:\n        /* \"#utility.yul\":218:428   */\n      swap3\n      swap2\n      pop\n      pop\n      jump\t// out\n        /* \"#utility.yul\":434:511   */\n    tag_82:\n        /* \"#utility.yul\":471:478   */\n      0x00\n        /* \"#utility.yul\":500:505   */\n      dup2\n        /* \"#utility.yul\":489:505   */\n      swap1\n      pop\n        /* \"#utility.yul\":434:511   */\n      swap2\n      swap1\n      pop\n      jump\t// out\n        /* \"#utility.yul\":517:635   */\n    tag_83:\n        /* \"#utility.yul\":604:628   */\n      tag_119\n        /* \"#utility.yul\":622:627   */\n      dup2\n        /* \"#utility.yul\":604:628   */\n      tag_82\n      jump\t// in\n    tag_119:\n        /* \"#utility.yul\":599:602   */\n      dup3\n        /* \"#utility.yul\":592:629   */\n      mstore\n        /* \"#utility.yul\":517:635   */\n      pop\n      pop\n      jump\t// out\n        /* \"#utility.yul\":641:863   */\n    tag_21:\n        /* \"#utility.yul\":734:738   */\n      0x00\n        /* \"#utility.yul\":772:774   */\n      0x20\n        /* \"#utility.yul\":761:770   */\n      dup3\n        /* \"#utility.yul\":757:775   */\n      add\n        /* \"#utility.yul\":749:775   */\n      swap1\n      pop\n        /* \"#utility.yul\":785:856   */\n      tag_121\n        /* \"#utility.yul\":853:854   */\n      0x00\n        /* \"#utility.yul\":842:851   */\n      dup4\n        /* \"#utility.yul\":838:855   */\n      add\n        /* \"#utility.yul\":829:835   */\n      dup5\n        /* \"#utility.yul\":785:856   */\n      tag_83\n      jump\t// in\n    tag_121:\n        /* \"#utility.yul\":641:863   */\n      swap3\n      swap2\n      pop\n      pop\n      jump\t// out\n        /* \"#utility.yul\":869:995   */\n    tag_84:\n        /* \"#utility.yul\":906:913   */\n      0x00\n        /* \"#utility.yul\":946:988   */\n      0xffffffffffffffffffffffffffffffffffffffff\n        /* \"#utility.yul\":939:944   */\n      dup3\n        /* \"#utility.yul\":935:989   */\n      and\n        /* \"#utility.yul\":924:989   */\n      swap1\n      pop\n        /* \"#utility.yul\":869:995   */\n      swap2\n      swap1\n      pop\n      jump\t// out\n        /* \"#utility.yul\":1001:1097   */\n    tag_85:\n        /* \"#utility.yul\":1038:1045   */\n      0x00\n        /* \"#utility.yul\":1067:1091   */\n      tag_124\n        /* \"#utility.yul\":1085:1090   */\n      dup3\n        /* \"#utility.yul\":1067:1091   */\n      tag_84\n      jump\t// in\n    tag_124:\n        /* \"#utility.yul\":1056:1091   */\n      swap1\n      pop\n        /* \"#utility.yul\":1001:1097   */\n      swap2\n      swap1\n      pop\n      jump\t// out\n        /* \"#utility.yul\":1103:1221   */\n    tag_86:\n        /* \"#utility.yul\":1190:1214   */\n      tag_126\n        /* \"#utility.yul\":1208:1213   */\n      dup2\n        /* \"#utility.yul\":1190:1214   */\n      tag_85\n      jump\t// in\n    tag_126:\n        /* \"#utility.yul\":1185:1188   */\n      dup3\n        /* \"#utility.yul\":1178:1215   */\n      mstore\n        /* \"#utility.yul\":1103:1221   */\n      pop\n      pop\n      jump\t// out\n        /* \"#utility.yul\":1227:1449   */\n    tag_26:\n        /* \"#utility.yul\":1320:1324   */\n      0x00\n        /* \"#utility.yul\":1358:1360   */\n      0x20\n        /* \"#utility.yul\":1347:1356   */\n      dup3\n        /* \"#utility.yul\":1343:1361   */\n      add\n        /* \"#utility.yul\":1335:1361   */\n      swap1\n      pop\n        /* \"#utility.yul\":1371:1442   */\n      tag_128\n        /* \"#utility.yul\":1439:1440   */\n      0x00\n        /* \"#utility.yul\":1428:1437   */\n      dup4\n        /* \"#utility.yul\":1424:1441   */\n      add\n        /* \"#utility.yul\":1415:1421   */\n      dup5\n        /* \"#utility.yul\":1371:1442   */\n      tag_86\n      jump\t// in\n    tag_128:\n        /* \"#utility.yul\":1227:1449   */\n      swap3\n      swap2\n      pop\n      pop\n      jump\t// out\n        /* \"#utility.yul\":1455:1554   */\n    tag_87:\n        /* \"#utility.yul\":1507:1513   */\n      0x00\n        /* \"#utility.yul\":1541:1546   */\n      dup2\n        /* \"#utility.yul\":1535:1547   */\n      mload\n        /* \"#utility.yul\":1525:1547   */\n      swap1\n      pop\n        /* \"#utility.yul\":1455:1554   */\n      swap2\n      swap1\n      pop\n      jump\t// out\n        /* \"#utility.yul\":1560:1729   */\n    tag_88:\n        /* \"#utility.yul\":1644:1655   */\n      0x00\n        /* \"#utility.yul\":1678:1684   */\n      dup3\n        /* \"#utility.yul\":1673:1676   */\n      dup3\n        /* \"#utility.yul\":1666:1685   */\n      mstore\n        /* \"#utility.yul\":1718:1722   */\n      0x20\n        /* \"#utility.yul\":1713:1716   */\n      dup3\n        /* \"#utility.yul\":1709:1723   */\n      add\n        /* \"#utility.yul\":1694:1723   */\n      swap1\n      pop\n        /* \"#utility.yul\":1560:1729   */\n      swap3\n      swap2\n      pop\n      pop\n      jump\t// out\n        /* \"#utility.yul\":1735:1874   */\n    tag_89:\n        /* \"#utility.yul\":1824:1830   */\n      dup3\n        /* \"#utility.yul\":1819:1822   */\n      dup2\n        /* \"#utility.yul\":1814:1817   */\n      dup4\n        /* \"#utility.yul\":1808:1831   */\n      mcopy\n        /* \"#utility.yul\":1865:1866   */\n      0x00\n        /* \"#utility.yul\":1856:1862   */\n      dup4\n        /* \"#utility.yul\":1851:1854   */\n      dup4\n        /* \"#utility.yul\":1847:1863   */\n      add\n        /* \"#utility.yul\":1840:1867   */\n      mstore\n        /* \"#utility.yul\":1735:1874   */\n      pop\n      pop\n      pop\n      jump\t// out\n        /* \"#utility.yul\":1880:1982   */\n    tag_90:\n        /* \"#utility.yul\":1921:1927   */\n      0x00\n        /* \"#utility.yul\":1972:1974   */\n      0x1f\n        /* \"#utility.yul\":1968:1975   */\n      not\n        /* \"#utility.yul\":1963:1965   */\n      0x1f\n        /* \"#utility.yul\":1956:1961   */\n      dup4\n        /* \"#utility.yul\":1952:1966   */\n      add\n        /* \"#utility.yul\":1948:1976   */\n      and\n        /* \"#utility.yul\":1938:1976   */\n      swap1\n      pop\n        /* \"#utility.yul\":1880:1982   */\n      swap2\n      swap1\n      pop\n      jump\t// out\n        /* \"#utility.yul\":1988:2365   */\n    tag_91:\n        /* \"#utility.yul\":2076:2079   */\n      0x00\n        /* \"#utility.yul\":2104:2143   */\n      tag_134\n        /* \"#utility.yul\":2137:2142   */\n      dup3\n        /* \"#utility.yul\":2104:2143   */\n      tag_87\n      jump\t// in\n    tag_134:\n        /* \"#utility.yul\":2159:2230   */\n      tag_135\n        /* \"#utility.yul\":2223:2229   */\n      dup2\n        /* \"#utility.yul\":2218:2221   */\n      dup6\n        /* \"#utility.yul\":2159:2230   */\n      tag_88\n      jump\t// in\n    tag_135:\n        /* \"#utility.yul\":2152:2230   */\n      swap4\n      pop\n        /* \"#utility.yul\":2239:2304   */\n      tag_136\n        /* \"#utility.yul\":2297:2303   */\n      dup2\n        /* \"#utility.yul\":2292:2295   */\n      dup6\n        /* \"#utility.yul\":2285:2289   */\n      0x20\n        /* \"#utility.yul\":2278:2283   */\n      dup7\n        /* \"#utility.yul\":2274:2290   */\n      add\n        /* \"#utility.yul\":2239:2304   */\n      tag_89\n      jump\t// in\n    tag_136:\n        /* \"#utility.yul\":2329:2358   */\n      tag_137\n        /* \"#utility.yul\":2351:2357   */\n      dup2\n        /* \"#utility.yul\":2329:2358   */\n      tag_90\n      jump\t// in\n    tag_137:\n        /* \"#utility.yul\":2324:2327   */\n      dup5\n        /* \"#utility.yul\":2320:2359   */\n      add\n        /* \"#utility.yul\":2313:2359   */\n      swap2\n      pop\n        /* \"#utility.yul\":2080:2365   */\n      pop\n        /* \"#utility.yul\":1988:2365   */\n      swap3\n      swap2\n      pop\n      pop\n      jump\t// out\n        /* \"#utility.yul\":2371:2684   */\n    tag_35:\n        /* \"#utility.yul\":2484:2488   */\n      0x00\n        /* \"#utility.yul\":2522:2524   */\n      0x20\n        /* \"#utility.yul\":2511:2520   */\n      dup3\n        /* \"#utility.yul\":2507:2525   */\n      add\n        /* \"#utility.yul\":2499:2525   */\n      swap1\n      pop\n        /* \"#utility.yul\":2571:2580   */\n      dup2\n        /* \"#utility.yul\":2565:2569   */\n      dup2\n        /* \"#utility.yul\":2561:2581   */\n      sub\n        /* \"#utility.yul\":2557:2558   */\n      0x00\n        /* \"#utility.yul\":2546:2555   */\n      dup4\n        /* \"#utility.yul\":2542:2559   */\n      add\n        /* \"#utility.yul\":2535:2582   */\n      mstore\n        /* \"#utility.yul\":2599:2677   */\n      tag_139\n        /* \"#utility.yul\":2672:2676   */\n      dup2\n        /* \"#utility.yul\":2663:2669   */\n      dup5\n        /* \"#utility.yul\":2599:2677   */\n      tag_91\n      jump\t// in\n    tag_139:\n        /* \"#utility.yul\":2591:2677   */\n      swap1\n      pop\n        /* \"#utility.yul\":2371:2684   */\n      swap3\n      swap2\n      pop\n      pop\n      jump\t// out\n        /* \"#utility.yul\":2771:2888   */\n    tag_93:\n        /* \"#utility.yul\":2880:2881   */\n      0x00\n        /* \"#utility.yul\":2877:2878   */\n      0x00\n        /* \"#utility.yul\":2870:2882   */\n      revert\n        /* \"#utility.yul\":3017:3139   */\n    tag_95:\n        /* \"#utility.yul\":3090:3114   */\n      tag_144\n        /* \"#utility.yul\":3108:3113   */\n      dup2\n        /* \"#utility.yul\":3090:3114   */\n      tag_82\n      jump\t// in\n    tag_144:\n        /* \"#utility.yul\":3083:3088   */\n      dup2\n        /* \"#utility.yul\":3080:3115   */\n      eq\n        /* \"#utility.yul\":3070:3133   */\n      tag_145\n      jumpi\n        /* \"#utility.yul\":3129:3130   */\n      0x00\n        /* \"#utility.yul\":3126:3127   */\n      0x00\n        /* \"#utility.yul\":3119:3131   */\n      revert\n        /* \"#utility.yul\":3070:3133   */\n    tag_145:\n        /* \"#utility.yul\":3017:3139   */\n      pop\n      jump\t// out\n        /* \"#utility.yul\":3145:3284   */\n    tag_96:\n        /* \"#utility.yul\":3191:3196   */\n      0x00\n        /* \"#utility.yul\":3229:3235   */\n      dup2\n        /* \"#utility.yul\":3216:3236   */\n      calldataload\n        /* \"#utility.yul\":3207:3236   */\n      swap1\n      pop\n        /* \"#utility.yul\":3245:3278   */\n      tag_147\n        /* \"#utility.yul\":3272:3277   */\n      dup2\n        /* \"#utility.yul\":3245:3278   */\n      tag_95\n      jump\t// in\n    tag_147:\n        /* \"#utility.yul\":3145:3284   */\n      swap3\n      swap2\n      pop\n      pop\n      jump\t// out\n        /* \"#utility.yul\":3290:3619   */\n    tag_43:\n        /* \"#utility.yul\":3349:3355   */\n      0x00\n        /* \"#utility.yul\":3398:3400   */\n      0x20\n        /* \"#utility.yul\":3386:3395   */\n      dup3\n        /* \"#utility.yul\":3377:3384   */\n      dup5\n        /* \"#utility.yul\":3373:3396   */\n      sub\n        /* \"#utility.yul\":3369:3401   */\n      slt\n        /* \"#utility.yul\":3366:3485   */\n      iszero\n      tag_149\n      jumpi\n        /* \"#utility.yul\":3404:3483   */\n      tag_150\n      tag_93\n      jump\t// in\n    tag_150:\n        /* \"#utility.yul\":3366:3485   */\n    tag_149:\n        /* \"#utility.yul\":3524:3525   */\n      0x00\n        /* \"#utility.yul\":3549:3602   */\n      tag_151\n        /* \"#utility.yul\":3594:3601   */\n      dup5\n        /* \"#utility.yul\":3585:3591   */\n      dup3\n        /* \"#utility.yul\":3574:3583   */\n      dup6\n        /* \"#utility.yul\":3570:3592   */\n      add\n        /* \"#utility.yul\":3549:3602   */\n      tag_96\n      jump\t// in\n    tag_151:\n        /* \"#utility.yul\":3539:3602   */\n      swap2\n      pop\n        /* \"#utility.yul\":3495:3612   */\n      pop\n        /* \"#utility.yul\":3290:3619   */\n      swap3\n      swap2\n      pop\n      pop\n      jump\t// out\n        /* \"#utility.yul\":3625:3805   */\n    tag_97:\n        /* \"#utility.yul\":3673:3750   */\n      0x4e487b7100000000000000000000000000000000000000000000000000000000\n        /* \"#utility.yul\":3670:3671   */\n      0x00\n        /* \"#utility.yul\":3663:3751   */\n      mstore\n        /* \"#utility.yul\":3770:3774   */\n      0x22\n        /* \"#utility.yul\":3767:3768   */\n      0x04\n        /* \"#utility.yul\":3760:3775   */\n      mstore\n        /* \"#utility.yul\":3794:3798   */\n      0x24\n        /* \"#utility.yul\":3791:3792   */\n      0x00\n        /* \"#utility.yul\":3784:3799   */\n      revert\n        /* \"#utility.yul\":3811:4131   */\n    tag_52:\n        /* \"#utility.yul\":3855:3861   */\n      0x00\n        /* \"#utility.yul\":3892:3893   */\n      0x02\n        /* \"#utility.yul\":3886:3890   */\n      dup3\n        /* \"#utility.yul\":3882:3894   */\n      div\n        /* \"#utility.yul\":3872:3894   */\n      swap1\n      pop\n        /* \"#utility.yul\":3939:3940   */\n      0x01\n        /* \"#utility.yul\":3933:3937   */\n      dup3\n        /* \"#utility.yul\":3929:3941   */\n      and\n        /* \"#utility.yul\":3960:3978   */\n      dup1\n        /* \"#utility.yul\":3950:4031   */\n      tag_154\n      jumpi\n        /* \"#utility.yul\":4016:4020   */\n      0x7f\n        /* \"#utility.yul\":4008:4014   */\n      dup3\n        /* \"#utility.yul\":4004:4021   */\n      and\n        /* \"#utility.yul\":3994:4021   */\n      swap2\n      pop\n        /* \"#utility.yul\":3950:4031   */\n    tag_154:\n        /* \"#utility.yul\":4078:4080   */\n      0x20\n        /* \"#utility.yul\":4070:4076   */\n      dup3\n        /* \"#utility.yul\":4067:4081   */\n      lt\n        /* \"#utility.yul\":4047:4065   */\n      dup2\n        /* \"#utility.yul\":4044:4082   */\n      sub\n        /* \"#utility.yul\":4041:4125   */\n      tag_155\n      jumpi\n        /* \"#utility.yul\":4097:4115   */\n      tag_156\n      tag_97\n      jump\t// in\n    tag_156:\n        /* \"#utility.yul\":4041:4125   */\n    tag_155:\n        /* \"#utility.yul\":3862:4131   */\n      pop\n        /* \"#utility.yul\":3811:4131   */\n      swap2\n      swap1\n      pop\n      jump\t// out\n        /* \"#utility.yul\":4137:4307   */\n    tag_98:\n        /* \"#utility.yul\":4277:4299   */\n      0x4e6f7420746865207469636b6574206f776e6572000000000000000000000000\n        /* \"#utility.yul\":4273:4274   */\n      0x00\n        /* \"#utility.yul\":4265:4271   */\n      dup3\n        /* \"#utility.yul\":4261:4275   */\n      add\n        /* \"#utility.yul\":4254:4300   */\n      mstore\n        /* \"#utility.yul\":4137:4307   */\n      pop\n      jump\t// out\n        /* \"#utility.yul\":4313:4679   */\n    tag_99:\n        /* \"#utility.yul\":4455:4458   */\n      0x00\n        /* \"#utility.yul\":4476:4543   */\n      tag_159\n        /* \"#utility.yul\":4540:4542   */\n      0x14\n        /* \"#utility.yul\":4535:4538   */\n      dup4\n        /* \"#utility.yul\":4476:4543   */\n      tag_88\n      jump\t// in\n    tag_159:\n        /* \"#utility.yul\":4469:4543   */\n      swap2\n      pop\n        /* \"#utility.yul\":4552:4645   */\n      tag_160\n        /* \"#utility.yul\":4641:4644   */\n      dup3\n        /* \"#utility.yul\":4552:4645   */\n      tag_98\n      jump\t// in\n    tag_160:\n        /* \"#utility.yul\":4670:4672   */\n      0x20\n        /* \"#utility.yul\":4665:4668   */\n      dup3\n        /* \"#utility.yul\":4661:4673   */\n      add\n        /* \"#utility.yul\":4654:4673   */\n      swap1\n      pop\n        /* \"#utility.yul\":4313:4679   */\n      swap2\n      swap1\n      pop\n      jump\t// out\n        /* \"#utility.yul\":4685:5104   */\n    tag_60:\n        /* \"#utility.yul\":4851:4855   */\n      0x00\n        /* \"#utility.yul\":4889:4891   */\n      0x20\n        /* \"#utility.yul\":4878:4887   */\n      dup3\n        /* \"#utility.yul\":4874:4892   */\n      add\n        /* \"#utility.yul\":4866:4892   */\n      swap1\n      pop\n        /* \"#utility.yul\":4938:4947   */\n      dup2\n        /* \"#utility.yul\":4932:4936   */\n      dup2\n        /* \"#utility.yul\":4928:4948   */\n      sub\n        /* \"#utility.yul\":4924:4925   */\n      0x00\n        /* \"#utility.yul\":4913:4922   */\n      dup4\n        /* \"#utility.yul\":4909:4926   */\n      add\n        /* \"#utility.yul\":4902:4949   */\n      mstore\n        /* \"#utility.yul\":4966:5097   */\n      tag_162\n        /* \"#utility.yul\":5092:5096   */\n      dup2\n        /* \"#utility.yul\":4966:5097   */\n      tag_99\n      jump\t// in\n    tag_162:\n        /* \"#utility.yul\":4958:5097   */\n      swap1\n      pop\n        /* \"#utility.yul\":4685:5104   */\n      swap2\n      swap1\n      pop\n      jump\t// out\n        /* \"#utility.yul\":5110:5336   */\n    tag_100:\n        /* \"#utility.yul\":5250:5284   */\n      0x50726963652065786365656473203131302520616e74692d7363616c70696e67\n        /* \"#utility.yul\":5246:5247   */\n      0x00\n        /* \"#utility.yul\":5238:5244   */\n      dup3\n        /* \"#utility.yul\":5234:5248   */\n      add\n        /* \"#utility.yul\":5227:5285   */\n      mstore\n        /* \"#utility.yul\":5319:5328   */\n      0x206c696d69742100000000000000000000000000000000000000000000000000\n        /* \"#utility.yul\":5314:5316   */\n      0x20\n        /* \"#utility.yul\":5306:5312   */\n      dup3\n        /* \"#utility.yul\":5302:5317   */\n      add\n        /* \"#utility.yul\":5295:5329   */\n      mstore\n        /* \"#utility.yul\":5110:5336   */\n      pop\n      jump\t// out\n        /* \"#utility.yul\":5342:5708   */\n    tag_101:\n        /* \"#utility.yul\":5484:5487   */\n      0x00\n        /* \"#utility.yul\":5505:5572   */\n      tag_165\n        /* \"#utility.yul\":5569:5571   */\n      0x27\n        /* \"#utility.yul\":5564:5567   */\n      dup4\n        /* \"#utility.yul\":5505:5572   */\n      tag_88\n      jump\t// in\n    tag_165:\n        /* \"#utility.yul\":5498:5572   */\n      swap2\n      pop\n        /* \"#utility.yul\":5581:5674   */\n      tag_166\n        /* \"#utility.yul\":5670:5673   */\n      dup3\n        /* \"#utility.yul\":5581:5674   */\n      tag_100\n      jump\t// in\n    tag_166:\n        /* \"#utility.yul\":5699:5701   */\n      0x40\n        /* \"#utility.yul\":5694:5697   */\n      dup3\n        /* \"#utility.yul\":5690:5702   */\n      add\n        /* \"#utility.yul\":5683:5702   */\n      swap1\n      pop\n        /* \"#utility.yul\":5342:5708   */\n      swap2\n      swap1\n      pop\n      jump\t// out\n        /* \"#utility.yul\":5714:6133   */\n    tag_64:\n        /* \"#utility.yul\":5880:5884   */\n      0x00\n        /* \"#utility.yul\":5918:5920   */\n      0x20\n        /* \"#utility.yul\":5907:5916   */\n      dup3\n        /* \"#utility.yul\":5903:5921   */\n      add\n        /* \"#utility.yul\":5895:5921   */\n      swap1\n      pop\n        /* \"#utility.yul\":5967:5976   */\n      dup2\n        /* \"#utility.yul\":5961:5965   */\n      dup2\n        /* \"#utility.yul\":5957:5977   */\n      sub\n        /* \"#utility.yul\":5953:5954   */\n      0x00\n        /* \"#utility.yul\":5942:5951   */\n      dup4\n        /* \"#utility.yul\":5938:5955   */\n      add\n        /* \"#utility.yul\":5931:5978   */\n      mstore\n        /* \"#utility.yul\":5995:6126   */\n      tag_168\n        /* \"#utility.yul\":6121:6125   */\n      dup2\n        /* \"#utility.yul\":5995:6126   */\n      tag_101\n      jump\t// in\n    tag_168:\n        /* \"#utility.yul\":5987:6126   */\n      swap1\n      pop\n        /* \"#utility.yul\":5714:6133   */\n      swap2\n      swap1\n      pop\n      jump\t// out\n        /* \"#utility.yul\":6139:6321   */\n    tag_102:\n        /* \"#utility.yul\":6279:6313   */\n      0x5469636b6574206973206e6f742063757272656e746c7920666f722073616c65\n        /* \"#utility.yul\":6275:6276   */\n      0x00\n        /* \"#utility.yul\":6267:6273   */\n      dup3\n        /* \"#utility.yul\":6263:6277   */\n      add\n        /* \"#utility.yul\":6256:6314   */\n      mstore\n        /* \"#utility.yul\":6139:6321   */\n      pop\n      jump\t// out\n        /* \"#utility.yul\":6327:6693   */\n    tag_103:\n        /* \"#utility.yul\":6469:6472   */\n      0x00\n        /* \"#utility.yul\":6490:6557   */\n      tag_171\n        /* \"#utility.yul\":6554:6556   */\n      0x20\n        /* \"#utility.yul\":6549:6552   */\n      dup4\n        /* \"#utility.yul\":6490:6557   */\n      tag_88\n      jump\t// in\n    tag_171:\n        /* \"#utility.yul\":6483:6557   */\n      swap2\n      pop\n        /* \"#utility.yul\":6566:6659   */\n      tag_172\n        /* \"#utility.yul\":6655:6658   */\n      dup3\n        /* \"#utility.yul\":6566:6659   */\n      tag_102\n      jump\t// in\n    tag_172:\n        /* \"#utility.yul\":6684:6686   */\n      0x20\n        /* \"#utility.yul\":6679:6682   */\n      dup3\n        /* \"#utility.yul\":6675:6687   */\n      add\n        /* \"#utility.yul\":6668:6687   */\n      swap1\n      pop\n        /* \"#utility.yul\":6327:6693   */\n      swap2\n      swap1\n      pop\n      jump\t// out\n        /* \"#utility.yul\":6699:7118   */\n    tag_68:\n        /* \"#utility.yul\":6865:6869   */\n      0x00\n        /* \"#utility.yul\":6903:6905   */\n      0x20\n        /* \"#utility.yul\":6892:6901   */\n      dup3\n        /* \"#utility.yul\":6888:6906   */\n      add\n        /* \"#utility.yul\":6880:6906   */\n      swap1\n      pop\n        /* \"#utility.yul\":6952:6961   */\n      dup2\n        /* \"#utility.yul\":6946:6950   */\n      dup2\n        /* \"#utility.yul\":6942:6962   */\n      sub\n        /* \"#utility.yul\":6938:6939   */\n      0x00\n        /* \"#utility.yul\":6927:6936   */\n      dup4\n        /* \"#utility.yul\":6923:6940   */\n      add\n        /* \"#utility.yul\":6916:6963   */\n      mstore\n        /* \"#utility.yul\":6980:7111   */\n      tag_174\n        /* \"#utility.yul\":7106:7110   */\n      dup2\n        /* \"#utility.yul\":6980:7111   */\n      tag_103\n      jump\t// in\n    tag_174:\n        /* \"#utility.yul\":6972:7111   */\n      swap1\n      pop\n        /* \"#utility.yul\":6699:7118   */\n      swap2\n      swap1\n      pop\n      jump\t// out\n        /* \"#utility.yul\":7124:7298   */\n    tag_104:\n        /* \"#utility.yul\":7264:7290   */\n      0x496e636f7272656374207061796d656e7420616d6f756e740000000000000000\n        /* \"#utility.yul\":7260:7261   */\n      0x00\n        /* \"#utility.yul\":7252:7258   */\n      dup3\n        /* \"#utility.yul\":7248:7262   */\n      add\n        /* \"#utility.yul\":7241:7291   */\n      mstore\n        /* \"#utility.yul\":7124:7298   */\n      pop\n      jump\t// out\n        /* \"#utility.yul\":7304:7670   */\n    tag_105:\n        /* \"#utility.yul\":7446:7449   */\n      0x00\n        /* \"#utility.yul\":7467:7534   */\n      tag_177\n        /* \"#utility.yul\":7531:7533   */\n      0x18\n        /* \"#utility.yul\":7526:7529   */\n      dup4\n        /* \"#utility.yul\":7467:7534   */\n      tag_88\n      jump\t// in\n    tag_177:\n        /* \"#utility.yul\":7460:7534   */\n      swap2\n      pop\n        /* \"#utility.yul\":7543:7636   */\n      tag_178\n        /* \"#utility.yul\":7632:7635   */\n      dup3\n        /* \"#utility.yul\":7543:7636   */\n      tag_104\n      jump\t// in\n    tag_178:\n        /* \"#utility.yul\":7661:7663   */\n      0x20\n        /* \"#utility.yul\":7656:7659   */\n      dup3\n        /* \"#utility.yul\":7652:7664   */\n      add\n        /* \"#utility.yul\":7645:7664   */\n      swap1\n      pop\n        /* \"#utility.yul\":7304:7670   */\n      swap2\n      swap1\n      pop\n      jump\t// out\n        /* \"#utility.yul\":7676:8095   */\n    tag_71:\n        /* \"#utility.yul\":7842:7846   */\n      0x00\n        /* \"#utility.yul\":7880:7882   */\n      0x20\n        /* \"#utility.yul\":7869:7878   */\n      dup3\n        /* \"#utility.yul\":7865:7883   */\n      add\n        /* \"#utility.yul\":7857:7883   */\n      swap1\n      pop\n        /* \"#utility.yul\":7929:7938   */\n      dup2\n        /* \"#utility.yul\":7923:7927   */\n      dup2\n        /* \"#utility.yul\":7919:7939   */\n      sub\n        /* \"#utility.yul\":7915:7916   */\n      0x00\n        /* \"#utility.yul\":7904:7913   */\n      dup4\n        /* \"#utility.yul\":7900:7917   */\n      add\n        /* \"#utility.yul\":7893:7940   */\n      mstore\n        /* \"#utility.yul\":7957:8088   */\n      tag_180\n        /* \"#utility.yul\":8083:8087   */\n      dup2\n        /* \"#utility.yul\":7957:8088   */\n      tag_105\n      jump\t// in\n    tag_180:\n        /* \"#utility.yul\":7949:8088   */\n      swap1\n      pop\n        /* \"#utility.yul\":7676:8095   */\n      swap2\n      swap1\n      pop\n      jump\t// out\n        /* \"#utility.yul\":8101:8248   */\n    tag_106:\n        /* \"#utility.yul\":8202:8213   */\n      0x00\n        /* \"#utility.yul\":8239:8242   */\n      dup2\n        /* \"#utility.yul\":8224:8242   */\n      swap1\n      pop\n        /* \"#utility.yul\":8101:8248   */\n      swap3\n      swap2\n      pop\n      pop\n      jump\t// out\n        /* \"#utility.yul\":8254:8368   */\n    tag_107:\n      pop\n      jump\t// out\n        /* \"#utility.yul\":8374:8772   */\n    tag_108:\n        /* \"#utility.yul\":8533:8536   */\n      0x00\n        /* \"#utility.yul\":8554:8637   */\n      tag_184\n        /* \"#utility.yul\":8635:8636   */\n      0x00\n        /* \"#utility.yul\":8630:8633   */\n      dup4\n        /* \"#utility.yul\":8554:8637   */\n      tag_106\n      jump\t// in\n    tag_184:\n        /* \"#utility.yul\":8547:8637   */\n      swap2\n      pop\n        /* \"#utility.yul\":8646:8739   */\n      tag_185\n        /* \"#utility.yul\":8735:8738   */\n      dup3\n        /* \"#utility.yul\":8646:8739   */\n      tag_107\n      jump\t// in\n    tag_185:\n        /* \"#utility.yul\":8764:8765   */\n      0x00\n        /* \"#utility.yul\":8759:8762   */\n      dup3\n        /* \"#utility.yul\":8755:8766   */\n      add\n        /* \"#utility.yul\":8748:8766   */\n      swap1\n      pop\n        /* \"#utility.yul\":8374:8772   */\n      swap2\n      swap1\n      pop\n      jump\t// out\n        /* \"#utility.yul\":8778:9157   */\n    tag_73:\n        /* \"#utility.yul\":8962:8965   */\n      0x00\n        /* \"#utility.yul\":8984:9131   */\n      tag_187\n        /* \"#utility.yul\":9127:9130   */\n      dup3\n        /* \"#utility.yul\":8984:9131   */\n      tag_108\n      jump\t// in\n    tag_187:\n        /* \"#utility.yul\":8977:9131   */\n      swap2\n      pop\n        /* \"#utility.yul\":9148:9151   */\n      dup2\n        /* \"#utility.yul\":9141:9151   */\n      swap1\n      pop\n        /* \"#utility.yul\":8778:9157   */\n      swap2\n      swap1\n      pop\n      jump\t// out\n        /* \"#utility.yul\":9163:9336   */\n    tag_109:\n        /* \"#utility.yul\":9303:9328   */\n      0x5061796d656e74207472616e73666572206661696c6564000000000000000000\n        /* \"#utility.yul\":9299:9300   */\n      0x00\n        /* \"#utility.yul\":9291:9297   */\n      dup3\n        /* \"#utility.yul\":9287:9301   */\n      add\n        /* \"#utility.yul\":9280:9329   */\n      mstore\n        /* \"#utility.yul\":9163:9336   */\n      pop\n      jump\t// out\n        /* \"#utility.yul\":9342:9708   */\n    tag_110:\n        /* \"#utility.yul\":9484:9487   */\n      0x00\n        /* \"#utility.yul\":9505:9572   */\n      tag_190\n        /* \"#utility.yul\":9569:9571   */\n      0x17\n        /* \"#utility.yul\":9564:9567   */\n      dup4\n        /* \"#utility.yul\":9505:9572   */\n      tag_88\n      jump\t// in\n    tag_190:\n        /* \"#utility.yul\":9498:9572   */\n      swap2\n      pop\n        /* \"#utility.yul\":9581:9674   */\n      tag_191\n        /* \"#utility.yul\":9670:9673   */\n      dup3\n        /* \"#utility.yul\":9581:9674   */\n      tag_109\n      jump\t// in\n    tag_191:\n        /* \"#utility.yul\":9699:9701   */\n      0x20\n        /* \"#utility.yul\":9694:9697   */\n      dup3\n        /* \"#utility.yul\":9690:9702   */\n      add\n        /* \"#utility.yul\":9683:9702   */\n      swap1\n      pop\n        /* \"#utility.yul\":9342:9708   */\n      swap2\n      swap1\n      pop\n      jump\t// out\n        /* \"#utility.yul\":9714:10133   */\n    tag_79:\n        /* \"#utility.yul\":9880:9884   */\n      0x00\n        /* \"#utility.yul\":9918:9920   */\n      0x20\n        /* \"#utility.yul\":9907:9916   */\n      dup3\n        /* \"#utility.yul\":9903:9921   */\n      add\n        /* \"#utility.yul\":9895:9921   */\n      swap1\n      pop\n        /* \"#utility.yul\":9967:9976   */\n      dup2\n        /* \"#utility.yul\":9961:9965   */\n      dup2\n        /* \"#utility.yul\":9957:9977   */\n      sub\n        /* \"#utility.yul\":9953:9954   */\n      0x00\n        /* \"#utility.yul\":9942:9951   */\n      dup4\n        /* \"#utility.yul\":9938:9955   */\n      add\n        /* \"#utility.yul\":9931:9978   */\n      mstore\n        /* \"#utility.yul\":9995:10126   */\n      tag_193\n        /* \"#utility.yul\":10121:10125   */\n      dup2\n        /* \"#utility.yul\":9995:10126   */\n      tag_110\n      jump\t// in\n    tag_193:\n        /* \"#utility.yul\":9987:10126   */\n      swap1\n      pop\n        /* \"#utility.yul\":9714:10133   */\n      swap2\n      swap1\n      pop\n      jump\t// out\n\n    auxdata: 0xa2646970667358221220d7ab05bd4ad13a5485af5428f61e393240e116dc596ee6dfeb67ba1e3c27031464736f6c634300081f0033\n}\n",
				"bytecode": {
					"linkReferences": {},
					"object": "608060405234801561000f575f5ffd5b5060405161116b38038061116b833981810160405281019061003191906102ec565b8060015f6101000a81548173ffffffffffffffffffffffffffffffffffffffff021916908373ffffffffffffffffffffffffffffffffffffffff160217905550805f5f6101000a81548173ffffffffffffffffffffffffffffffffffffffff021916908373ffffffffffffffffffffffffffffffffffffffff16021790555082600290816100bf919061055f565b50816003819055506064600a836100d6919061065b565b6100e091906106c9565b826100eb91906106f9565b6004819055505f60055f6101000a81548160ff02191690831515021790555050505061072c565b5f604051905090565b5f5ffd5b5f5ffd5b5f5ffd5b5f5ffd5b5f601f19601f8301169050919050565b7f4e487b71000000000000000000000000000000000000000000000000000000005f52604160045260245ffd5b6101718261012b565b810181811067ffffffffffffffff821117156101905761018f61013b565b5b80604052505050565b5f6101a2610112565b90506101ae8282610168565b919050565b5f67ffffffffffffffff8211156101cd576101cc61013b565b5b6101d68261012b565b9050602081019050919050565b8281835e5f83830152505050565b5f6102036101fe846101b3565b610199565b90508281526020810184848401111561021f5761021e610127565b5b61022a8482856101e3565b509392505050565b5f82601f83011261024657610245610123565b5b81516102568482602086016101f1565b91505092915050565b5f819050919050565b6102718161025f565b811461027b575f5ffd5b50565b5f8151905061028c81610268565b92915050565b5f73ffffffffffffffffffffffffffffffffffffffff82169050919050565b5f6102bb82610292565b9050919050565b6102cb816102b1565b81146102d5575f5ffd5b50565b5f815190506102e6816102c2565b92915050565b5f5f5f606084860312156103035761030261011b565b5b5f84015167ffffffffffffffff8111156103205761031f61011f565b5b61032c86828701610232565b935050602061033d8682870161027e565b925050604061034e868287016102d8565b9150509250925092565b5f81519050919050565b7f4e487b71000000000000000000000000000000000000000000000000000000005f52602260045260245ffd5b5f60028204905060018216806103a657607f821691505b6020821081036103b9576103b8610362565b5b50919050565b5f819050815f5260205f209050919050565b5f6020601f8301049050919050565b5f82821b905092915050565b5f6008830261041b7fffffffffffffffffffffffffffffffffffffffffffffffffffffffffffffffff826103e0565b61042586836103e0565b95508019841693508086168417925050509392505050565b5f819050919050565b5f61046061045b6104568461025f565b61043d565b61025f565b9050919050565b5f819050919050565b61047983610446565b61048d61048582610467565b8484546103ec565b825550505050565b5f5f905090565b6104a4610495565b6104af818484610470565b505050565b5b818110156104d2576104c75f8261049c565b6001810190506104b5565b5050565b601f821115610517576104e8816103bf565b6104f1846103d1565b81016020851015610500578190505b61051461050c856103d1565b8301826104b4565b50505b505050565b5f82821c905092915050565b5f6105375f198460080261051c565b1980831691505092915050565b5f61054f8383610528565b9150826002028217905092915050565b61056882610358565b67ffffffffffffffff8111156105815761058061013b565b5b61058b825461038f565b6105968282856104d6565b5f60209050601f8311600181146105c7575f84156105b5578287015190505b6105bf8582610544565b865550610626565b601f1984166105d5866103bf565b5f5b828110156105fc578489015182556001820191506020850194506020810190506105d7565b868310156106195784890151610615601f891682610528565b8355505b6001600288020188555050505b505050505050565b7f4e487b71000000000000000000000000000000000000000000000000000000005f52601160045260245ffd5b5f6106658261025f565b91506106708361025f565b925082820261067e8161025f565b915082820484148315176106955761069461062e565b5b5092915050565b7f4e487b71000000000000000000000000000000000000000000000000000000005f52601260045260245ffd5b5f6106d38261025f565b91506106de8361025f565b9250826106ee576106ed61069c565b5b828204905092915050565b5f6107038261025f565b915061070e8361025f565b92508282019050808211156107265761072561062e565b5b92915050565b610a32806107395f395ff3fe608060405260043610610085575f3560e01c80638043c9c0116100585780638043c9c014610131578063b387ef921461015b578063c7857fb514610185578063edca914c146101ad578063f51f96dd146101b757610085565b806320b08dc21461008957806339e9e8eb146100b35780637514d7cb146100dd57806376a24f2514610107575b5f5ffd5b348015610094575f5ffd5b5061009d6101e1565b6040516100aa91906105a5565b60405180910390f35b3480156100be575f5ffd5b506100c76101f3565b6040516100d491906105d6565b60405180910390f35b3480156100e8575f5ffd5b506100f16101f9565b6040516100fe919061062e565b60405180910390f35b348015610112575f5ffd5b5061011b61021e565b60405161012891906105d6565b60405180910390f35b34801561013c575f5ffd5b50610145610224565b60405161015291906106b7565b60405180910390f35b348015610166575f5ffd5b5061016f6102b0565b60405161017c919061062e565b60405180910390f35b348015610190575f5ffd5b506101ab60048036038101906101a69190610705565b6102d4565b005b6101b56103cb565b005b3480156101c2575f5ffd5b506101cb610585565b6040516101d891906105d6565b60405180910390f35b60055f9054906101000a900460ff1681565b60045481565b60015f9054906101000a900473ffffffffffffffffffffffffffffffffffffffff1681565b60035481565b600280546102319061075d565b80601f016020809104026020016040519081016040528092919081815260200182805461025d9061075d565b80156102a85780601f1061027f576101008083540402835291602001916102a8565b820191905f5260205f20905b81548152906001019060200180831161028b57829003601f168201915b505050505081565b5f5f9054906101000a900473ffffffffffffffffffffffffffffffffffffffff1681565b5f5f9054906101000a900473ffffffffffffffffffffffffffffffffffffffff1673ffffffffffffffffffffffffffffffffffffffff163373ffffffffffffffffffffffffffffffffffffffff1614610362576040517f08c379a0000000000000000000000000000000000000000000000000000000008152600401610359906107d7565b60405180910390fd5b6004548111156103a7576040517f08c379a000000000000000000000000000000000000000000000000000000000815260040161039e90610865565b60405180910390fd5b80600681905550600160055f6101000a81548160ff02191690831515021790555050565b60055f9054906101000a900460ff16610419576040517f08c379a0000000000000000000000000000000000000000000000000000000008152600401610410906108cd565b60405180910390fd5b600654341461045d576040517f08c379a000000000000000000000000000000000000000000000000000000000815260040161045490610935565b60405180910390fd5b5f5f5f9054906101000a900473ffffffffffffffffffffffffffffffffffffffff169050335f5f6101000a81548173ffffffffffffffffffffffffffffffffffffffff021916908373ffffffffffffffffffffffffffffffffffffffff1602179055505f60055f6101000a81548160ff0219169083151502179055505f8173ffffffffffffffffffffffffffffffffffffffff16346040516104fe90610980565b5f6040518083038185875af1925050503d805f8114610538576040519150601f19603f3d011682016040523d82523d5f602084013e61053d565b606091505b5050905080610581576040517f08c379a0000000000000000000000000000000000000000000000000000000008152600401610578906109de565b60405180910390fd5b5050565b60065481565b5f8115159050919050565b61059f8161058b565b82525050565b5f6020820190506105b85f830184610596565b92915050565b5f819050919050565b6105d0816105be565b82525050565b5f6020820190506105e95f8301846105c7565b92915050565b5f73ffffffffffffffffffffffffffffffffffffffff82169050919050565b5f610618826105ef565b9050919050565b6106288161060e565b82525050565b5f6020820190506106415f83018461061f565b92915050565b5f81519050919050565b5f82825260208201905092915050565b8281835e5f83830152505050565b5f601f19601f8301169050919050565b5f61068982610647565b6106938185610651565b93506106a3818560208601610661565b6106ac8161066f565b840191505092915050565b5f6020820190508181035f8301526106cf818461067f565b905092915050565b5f5ffd5b6106e4816105be565b81146106ee575f5ffd5b50565b5f813590506106ff816106db565b92915050565b5f6020828403121561071a576107196106d7565b5b5f610727848285016106f1565b91505092915050565b7f4e487b71000000000000000000000000000000000000000000000000000000005f52602260045260245ffd5b5f600282049050600182168061077457607f821691505b60208210810361078757610786610730565b5b50919050565b7f4e6f7420746865207469636b6574206f776e65720000000000000000000000005f82015250565b5f6107c1601483610651565b91506107cc8261078d565b602082019050919050565b5f6020820190508181035f8301526107ee816107b5565b9050919050565b7f50726963652065786365656473203131302520616e74692d7363616c70696e675f8201527f206c696d69742100000000000000000000000000000000000000000000000000602082015250565b5f61084f602783610651565b915061085a826107f5565b604082019050919050565b5f6020820190508181035f83015261087c81610843565b9050919050565b7f5469636b6574206973206e6f742063757272656e746c7920666f722073616c655f82015250565b5f6108b7602083610651565b91506108c282610883565b602082019050919050565b5f6020820190508181035f8301526108e4816108ab565b9050919050565b7f496e636f7272656374207061796d656e7420616d6f756e7400000000000000005f82015250565b5f61091f601883610651565b915061092a826108eb565b602082019050919050565b5f6020820190508181035f83015261094c81610913565b9050919050565b5f81905092915050565b50565b5f61096b5f83610953565b91506109768261095d565b5f82019050919050565b5f61098a82610960565b9150819050919050565b7f5061796d656e74207472616e73666572206661696c65640000000000000000005f82015250565b5f6109c8601783610651565b91506109d382610994565b602082019050919050565b5f6020820190508181035f8301526109f5816109bc565b905091905056fea2646970667358221220d7ab05bd4ad13a5485af5428f61e393240e116dc596ee6dfeb67ba1e3c27031464736f6c634300081f0033",
					"opcodes": "PUSH1 0x80 PUSH1 0x40 MSTORE CALLVALUE DUP1 ISZERO PUSH2 0xF JUMPI PUSH0 PUSH0 REVERT JUMPDEST POP PUSH1 0x40 MLOAD PUSH2 0x116B CODESIZE SUB DUP1 PUSH2 0x116B DUP4 CODECOPY DUP2 DUP2 ADD PUSH1 0x40 MSTORE DUP2 ADD SWAP1 PUSH2 0x31 SWAP2 SWAP1 PUSH2 0x2EC JUMP JUMPDEST DUP1 PUSH1 0x1 PUSH0 PUSH2 0x100 EXP DUP2 SLOAD DUP2 PUSH20 0xFFFFFFFFFFFFFFFFFFFFFFFFFFFFFFFFFFFFFFFF MUL NOT AND SWAP1 DUP4 PUSH20 0xFFFFFFFFFFFFFFFFFFFFFFFFFFFFFFFFFFFFFFFF AND MUL OR SWAP1 SSTORE POP DUP1 PUSH0 PUSH0 PUSH2 0x100 EXP DUP2 SLOAD DUP2 PUSH20 0xFFFFFFFFFFFFFFFFFFFFFFFFFFFFFFFFFFFFFFFF MUL NOT AND SWAP1 DUP4 PUSH20 0xFFFFFFFFFFFFFFFFFFFFFFFFFFFFFFFFFFFFFFFF AND MUL OR SWAP1 SSTORE POP DUP3 PUSH1 0x2 SWAP1 DUP2 PUSH2 0xBF SWAP2 SWAP1 PUSH2 0x55F JUMP JUMPDEST POP DUP2 PUSH1 0x3 DUP2 SWAP1 SSTORE POP PUSH1 0x64 PUSH1 0xA DUP4 PUSH2 0xD6 SWAP2 SWAP1 PUSH2 0x65B JUMP JUMPDEST PUSH2 0xE0 SWAP2 SWAP1 PUSH2 0x6C9 JUMP JUMPDEST DUP3 PUSH2 0xEB SWAP2 SWAP1 PUSH2 0x6F9 JUMP JUMPDEST PUSH1 0x4 DUP2 SWAP1 SSTORE POP PUSH0 PUSH1 0x5 PUSH0 PUSH2 0x100 EXP DUP2 SLOAD DUP2 PUSH1 0xFF MUL NOT AND SWAP1 DUP4 ISZERO ISZERO MUL OR SWAP1 SSTORE POP POP POP POP PUSH2 0x72C JUMP JUMPDEST PUSH0 PUSH1 0x40 MLOAD SWAP1 POP SWAP1 JUMP JUMPDEST PUSH0 PUSH0 REVERT JUMPDEST PUSH0 PUSH0 REVERT JUMPDEST PUSH0 PUSH0 REVERT JUMPDEST PUSH0 PUSH0 REVERT JUMPDEST PUSH0 PUSH1 0x1F NOT PUSH1 0x1F DUP4 ADD AND SWAP1 POP SWAP2 SWAP1 POP JUMP JUMPDEST PUSH32 0x4E487B7100000000000000000000000000000000000000000000000000000000 PUSH0 MSTORE PUSH1 0x41 PUSH1 0x4 MSTORE PUSH1 0x24 PUSH0 REVERT JUMPDEST PUSH2 0x171 DUP3 PUSH2 0x12B JUMP JUMPDEST DUP2 ADD DUP2 DUP2 LT PUSH8 0xFFFFFFFFFFFFFFFF DUP3 GT OR ISZERO PUSH2 0x190 JUMPI PUSH2 0x18F PUSH2 0x13B JUMP JUMPDEST JUMPDEST DUP1 PUSH1 0x40 MSTORE POP POP POP JUMP JUMPDEST PUSH0 PUSH2 0x1A2 PUSH2 0x112 JUMP JUMPDEST SWAP1 POP PUSH2 0x1AE DUP3 DUP3 PUSH2 0x168 JUMP JUMPDEST SWAP2 SWAP1 POP JUMP JUMPDEST PUSH0 PUSH8 0xFFFFFFFFFFFFFFFF DUP3 GT ISZERO PUSH2 0x1CD JUMPI PUSH2 0x1CC PUSH2 0x13B JUMP JUMPDEST JUMPDEST PUSH2 0x1D6 DUP3 PUSH2 0x12B JUMP JUMPDEST SWAP1 POP PUSH1 0x20 DUP2 ADD SWAP1 POP SWAP2 SWAP1 POP JUMP JUMPDEST DUP3 DUP2 DUP4 MCOPY PUSH0 DUP4 DUP4 ADD MSTORE POP POP POP JUMP JUMPDEST PUSH0 PUSH2 0x203 PUSH2 0x1FE DUP5 PUSH2 0x1B3 JUMP JUMPDEST PUSH2 0x199 JUMP JUMPDEST SWAP1 POP DUP3 DUP2 MSTORE PUSH1 0x20 DUP2 ADD DUP5 DUP5 DUP5 ADD GT ISZERO PUSH2 0x21F JUMPI PUSH2 0x21E PUSH2 0x127 JUMP JUMPDEST JUMPDEST PUSH2 0x22A DUP5 DUP3 DUP6 PUSH2 0x1E3 JUMP JUMPDEST POP SWAP4 SWAP3 POP POP POP JUMP JUMPDEST PUSH0 DUP3 PUSH1 0x1F DUP4 ADD SLT PUSH2 0x246 JUMPI PUSH2 0x245 PUSH2 0x123 JUMP JUMPDEST JUMPDEST DUP2 MLOAD PUSH2 0x256 DUP5 DUP3 PUSH1 0x20 DUP7 ADD PUSH2 0x1F1 JUMP JUMPDEST SWAP2 POP POP SWAP3 SWAP2 POP POP JUMP JUMPDEST PUSH0 DUP2 SWAP1 POP SWAP2 SWAP1 POP JUMP JUMPDEST PUSH2 0x271 DUP2 PUSH2 0x25F JUMP JUMPDEST DUP2 EQ PUSH2 0x27B JUMPI PUSH0 PUSH0 REVERT JUMPDEST POP JUMP JUMPDEST PUSH0 DUP2 MLOAD SWAP1 POP PUSH2 0x28C DUP2 PUSH2 0x268 JUMP JUMPDEST SWAP3 SWAP2 POP POP JUMP JUMPDEST PUSH0 PUSH20 0xFFFFFFFFFFFFFFFFFFFFFFFFFFFFFFFFFFFFFFFF DUP3 AND SWAP1 POP SWAP2 SWAP1 POP JUMP JUMPDEST PUSH0 PUSH2 0x2BB DUP3 PUSH2 0x292 JUMP JUMPDEST SWAP1 POP SWAP2 SWAP1 POP JUMP JUMPDEST PUSH2 0x2CB DUP2 PUSH2 0x2B1 JUMP JUMPDEST DUP2 EQ PUSH2 0x2D5 JUMPI PUSH0 PUSH0 REVERT JUMPDEST POP JUMP JUMPDEST PUSH0 DUP2 MLOAD SWAP1 POP PUSH2 0x2E6 DUP2 PUSH2 0x2C2 JUMP JUMPDEST SWAP3 SWAP2 POP POP JUMP JUMPDEST PUSH0 PUSH0 PUSH0 PUSH1 0x60 DUP5 DUP7 SUB SLT ISZERO PUSH2 0x303 JUMPI PUSH2 0x302 PUSH2 0x11B JUMP JUMPDEST JUMPDEST PUSH0 DUP5 ADD MLOAD PUSH8 0xFFFFFFFFFFFFFFFF DUP2 GT ISZERO PUSH2 0x320 JUMPI PUSH2 0x31F PUSH2 0x11F JUMP JUMPDEST JUMPDEST PUSH2 0x32C DUP7 DUP3 DUP8 ADD PUSH2 0x232 JUMP JUMPDEST SWAP4 POP POP PUSH1 0x20 PUSH2 0x33D DUP7 DUP3 DUP8 ADD PUSH2 0x27E JUMP JUMPDEST SWAP3 POP POP PUSH1 0x40 PUSH2 0x34E DUP7 DUP3 DUP8 ADD PUSH2 0x2D8 JUMP JUMPDEST SWAP2 POP POP SWAP3 POP SWAP3 POP SWAP3 JUMP JUMPDEST PUSH0 DUP2 MLOAD SWAP1 POP SWAP2 SWAP1 POP JUMP JUMPDEST PUSH32 0x4E487B7100000000000000000000000000000000000000000000000000000000 PUSH0 MSTORE PUSH1 0x22 PUSH1 0x4 MSTORE PUSH1 0x24 PUSH0 REVERT JUMPDEST PUSH0 PUSH1 0x2 DUP3 DIV SWAP1 POP PUSH1 0x1 DUP3 AND DUP1 PUSH2 0x3A6 JUMPI PUSH1 0x7F DUP3 AND SWAP2 POP JUMPDEST PUSH1 0x20 DUP3 LT DUP2 SUB PUSH2 0x3B9 JUMPI PUSH2 0x3B8 PUSH2 0x362 JUMP JUMPDEST JUMPDEST POP SWAP2 SWAP1 POP JUMP JUMPDEST PUSH0 DUP2 SWAP1 POP DUP2 PUSH0 MSTORE PUSH1 0x20 PUSH0 KECCAK256 SWAP1 POP SWAP2 SWAP1 POP JUMP JUMPDEST PUSH0 PUSH1 0x20 PUSH1 0x1F DUP4 ADD DIV SWAP1 POP SWAP2 SWAP1 POP JUMP JUMPDEST PUSH0 DUP3 DUP3 SHL SWAP1 POP SWAP3 SWAP2 POP POP JUMP JUMPDEST PUSH0 PUSH1 0x8 DUP4 MUL PUSH2 0x41B PUSH32 0xFFFFFFFFFFFFFFFFFFFFFFFFFFFFFFFFFFFFFFFFFFFFFFFFFFFFFFFFFFFFFFFF DUP3 PUSH2 0x3E0 JUMP JUMPDEST PUSH2 0x425 DUP7 DUP4 PUSH2 0x3E0 JUMP JUMPDEST SWAP6 POP DUP1 NOT DUP5 AND SWAP4 POP DUP1 DUP7 AND DUP5 OR SWAP3 POP POP POP SWAP4 SWAP3 POP POP POP JUMP JUMPDEST PUSH0 DUP2 SWAP1 POP SWAP2 SWAP1 POP JUMP JUMPDEST PUSH0 PUSH2 0x460 PUSH2 0x45B PUSH2 0x456 DUP5 PUSH2 0x25F JUMP JUMPDEST PUSH2 0x43D JUMP JUMPDEST PUSH2 0x25F JUMP JUMPDEST SWAP1 POP SWAP2 SWAP1 POP JUMP JUMPDEST PUSH0 DUP2 SWAP1 POP SWAP2 SWAP1 POP JUMP JUMPDEST PUSH2 0x479 DUP4 PUSH2 0x446 JUMP JUMPDEST PUSH2 0x48D PUSH2 0x485 DUP3 PUSH2 0x467 JUMP JUMPDEST DUP5 DUP5 SLOAD PUSH2 0x3EC JUMP JUMPDEST DUP3 SSTORE POP POP POP POP JUMP JUMPDEST PUSH0 PUSH0 SWAP1 POP SWAP1 JUMP JUMPDEST PUSH2 0x4A4 PUSH2 0x495 JUMP JUMPDEST PUSH2 0x4AF DUP2 DUP5 DUP5 PUSH2 0x470 JUMP JUMPDEST POP POP POP JUMP JUMPDEST JUMPDEST DUP2 DUP2 LT ISZERO PUSH2 0x4D2 JUMPI PUSH2 0x4C7 PUSH0 DUP3 PUSH2 0x49C JUMP JUMPDEST PUSH1 0x1 DUP2 ADD SWAP1 POP PUSH2 0x4B5 JUMP JUMPDEST POP POP JUMP JUMPDEST PUSH1 0x1F DUP3 GT ISZERO PUSH2 0x517 JUMPI PUSH2 0x4E8 DUP2 PUSH2 0x3BF JUMP JUMPDEST PUSH2 0x4F1 DUP5 PUSH2 0x3D1 JUMP JUMPDEST DUP2 ADD PUSH1 0x20 DUP6 LT ISZERO PUSH2 0x500 JUMPI DUP2 SWAP1 POP JUMPDEST PUSH2 0x514 PUSH2 0x50C DUP6 PUSH2 0x3D1 JUMP JUMPDEST DUP4 ADD DUP3 PUSH2 0x4B4 JUMP JUMPDEST POP POP JUMPDEST POP POP POP JUMP JUMPDEST PUSH0 DUP3 DUP3 SHR SWAP1 POP SWAP3 SWAP2 POP POP JUMP JUMPDEST PUSH0 PUSH2 0x537 PUSH0 NOT DUP5 PUSH1 0x8 MUL PUSH2 0x51C JUMP JUMPDEST NOT DUP1 DUP4 AND SWAP2 POP POP SWAP3 SWAP2 POP POP JUMP JUMPDEST PUSH0 PUSH2 0x54F DUP4 DUP4 PUSH2 0x528 JUMP JUMPDEST SWAP2 POP DUP3 PUSH1 0x2 MUL DUP3 OR SWAP1 POP SWAP3 SWAP2 POP POP JUMP JUMPDEST PUSH2 0x568 DUP3 PUSH2 0x358 JUMP JUMPDEST PUSH8 0xFFFFFFFFFFFFFFFF DUP2 GT ISZERO PUSH2 0x581 JUMPI PUSH2 0x580 PUSH2 0x13B JUMP JUMPDEST JUMPDEST PUSH2 0x58B DUP3 SLOAD PUSH2 0x38F JUMP JUMPDEST PUSH2 0x596 DUP3 DUP3 DUP6 PUSH2 0x4D6 JUMP JUMPDEST PUSH0 PUSH1 0x20 SWAP1 POP PUSH1 0x1F DUP4 GT PUSH1 0x1 DUP2 EQ PUSH2 0x5C7 JUMPI PUSH0 DUP5 ISZERO PUSH2 0x5B5 JUMPI DUP3 DUP8 ADD MLOAD SWAP1 POP JUMPDEST PUSH2 0x5BF DUP6 DUP3 PUSH2 0x544 JUMP JUMPDEST DUP7 SSTORE POP PUSH2 0x626 JUMP JUMPDEST PUSH1 0x1F NOT DUP5 AND PUSH2 0x5D5 DUP7 PUSH2 0x3BF JUMP JUMPDEST PUSH0 JUMPDEST DUP3 DUP2 LT ISZERO PUSH2 0x5FC JUMPI DUP5 DUP10 ADD MLOAD DUP3 SSTORE PUSH1 0x1 DUP3 ADD SWAP2 POP PUSH1 0x20 DUP6 ADD SWAP5 POP PUSH1 0x20 DUP2 ADD SWAP1 POP PUSH2 0x5D7 JUMP JUMPDEST DUP7 DUP4 LT ISZERO PUSH2 0x619 JUMPI DUP5 DUP10 ADD MLOAD PUSH2 0x615 PUSH1 0x1F DUP10 AND DUP3 PUSH2 0x528 JUMP JUMPDEST DUP4 SSTORE POP JUMPDEST PUSH1 0x1 PUSH1 0x2 DUP9 MUL ADD DUP9 SSTORE POP POP POP JUMPDEST POP POP POP POP POP POP JUMP JUMPDEST PUSH32 0x4E487B7100000000000000000000000000000000000000000000000000000000 PUSH0 MSTORE PUSH1 0x11 PUSH1 0x4 MSTORE PUSH1 0x24 PUSH0 REVERT JUMPDEST PUSH0 PUSH2 0x665 DUP3 PUSH2 0x25F JUMP JUMPDEST SWAP2 POP PUSH2 0x670 DUP4 PUSH2 0x25F JUMP JUMPDEST SWAP3 POP DUP3 DUP3 MUL PUSH2 0x67E DUP2 PUSH2 0x25F JUMP JUMPDEST SWAP2 POP DUP3 DUP3 DIV DUP5 EQ DUP4 ISZERO OR PUSH2 0x695 JUMPI PUSH2 0x694 PUSH2 0x62E JUMP JUMPDEST JUMPDEST POP SWAP3 SWAP2 POP POP JUMP JUMPDEST PUSH32 0x4E487B7100000000000000000000000000000000000000000000000000000000 PUSH0 MSTORE PUSH1 0x12 PUSH1 0x4 MSTORE PUSH1 0x24 PUSH0 REVERT JUMPDEST PUSH0 PUSH2 0x6D3 DUP3 PUSH2 0x25F JUMP JUMPDEST SWAP2 POP PUSH2 0x6DE DUP4 PUSH2 0x25F JUMP JUMPDEST SWAP3 POP DUP3 PUSH2 0x6EE JUMPI PUSH2 0x6ED PUSH2 0x69C JUMP JUMPDEST JUMPDEST DUP3 DUP3 DIV SWAP1 POP SWAP3 SWAP2 POP POP JUMP JUMPDEST PUSH0 PUSH2 0x703 DUP3 PUSH2 0x25F JUMP JUMPDEST SWAP2 POP PUSH2 0x70E DUP4 PUSH2 0x25F JUMP JUMPDEST SWAP3 POP DUP3 DUP3 ADD SWAP1 POP DUP1 DUP3 GT ISZERO PUSH2 0x726 JUMPI PUSH2 0x725 PUSH2 0x62E JUMP JUMPDEST JUMPDEST SWAP3 SWAP2 POP POP JUMP JUMPDEST PUSH2 0xA32 DUP1 PUSH2 0x739 PUSH0 CODECOPY PUSH0 RETURN INVALID PUSH1 0x80 PUSH1 0x40 MSTORE PUSH1 0x4 CALLDATASIZE LT PUSH2 0x85 JUMPI PUSH0 CALLDATALOAD PUSH1 0xE0 SHR DUP1 PUSH4 0x8043C9C0 GT PUSH2 0x58 JUMPI DUP1 PUSH4 0x8043C9C0 EQ PUSH2 0x131 JUMPI DUP1 PUSH4 0xB387EF92 EQ PUSH2 0x15B JUMPI DUP1 PUSH4 0xC7857FB5 EQ PUSH2 0x185 JUMPI DUP1 PUSH4 0xEDCA914C EQ PUSH2 0x1AD JUMPI DUP1 PUSH4 0xF51F96DD EQ PUSH2 0x1B7 JUMPI PUSH2 0x85 JUMP JUMPDEST DUP1 PUSH4 0x20B08DC2 EQ PUSH2 0x89 JUMPI DUP1 PUSH4 0x39E9E8EB EQ PUSH2 0xB3 JUMPI DUP1 PUSH4 0x7514D7CB EQ PUSH2 0xDD JUMPI DUP1 PUSH4 0x76A24F25 EQ PUSH2 0x107 JUMPI JUMPDEST PUSH0 PUSH0 REVERT JUMPDEST CALLVALUE DUP1 ISZERO PUSH2 0x94 JUMPI PUSH0 PUSH0 REVERT JUMPDEST POP PUSH2 0x9D PUSH2 0x1E1 JUMP JUMPDEST PUSH1 0x40 MLOAD PUSH2 0xAA SWAP2 SWAP1 PUSH2 0x5A5 JUMP JUMPDEST PUSH1 0x40 MLOAD DUP1 SWAP2 SUB SWAP1 RETURN JUMPDEST CALLVALUE DUP1 ISZERO PUSH2 0xBE JUMPI PUSH0 PUSH0 REVERT JUMPDEST POP PUSH2 0xC7 PUSH2 0x1F3 JUMP JUMPDEST PUSH1 0x40 MLOAD PUSH2 0xD4 SWAP2 SWAP1 PUSH2 0x5D6 JUMP JUMPDEST PUSH1 0x40 MLOAD DUP1 SWAP2 SUB SWAP1 RETURN JUMPDEST CALLVALUE DUP1 ISZERO PUSH2 0xE8 JUMPI PUSH0 PUSH0 REVERT JUMPDEST POP PUSH2 0xF1 PUSH2 0x1F9 JUMP JUMPDEST PUSH1 0x40 MLOAD PUSH2 0xFE SWAP2 SWAP1 PUSH2 0x62E JUMP JUMPDEST PUSH1 0x40 MLOAD DUP1 SWAP2 SUB SWAP1 RETURN JUMPDEST CALLVALUE DUP1 ISZERO PUSH2 0x112 JUMPI PUSH0 PUSH0 REVERT JUMPDEST POP PUSH2 0x11B PUSH2 0x21E JUMP JUMPDEST PUSH1 0x40 MLOAD PUSH2 0x128 SWAP2 SWAP1 PUSH2 0x5D6 JUMP JUMPDEST PUSH1 0x40 MLOAD DUP1 SWAP2 SUB SWAP1 RETURN JUMPDEST CALLVALUE DUP1 ISZERO PUSH2 0x13C JUMPI PUSH0 PUSH0 REVERT JUMPDEST POP PUSH2 0x145 PUSH2 0x224 JUMP JUMPDEST PUSH1 0x40 MLOAD PUSH2 0x152 SWAP2 SWAP1 PUSH2 0x6B7 JUMP JUMPDEST PUSH1 0x40 MLOAD DUP1 SWAP2 SUB SWAP1 RETURN JUMPDEST CALLVALUE DUP1 ISZERO PUSH2 0x166 JUMPI PUSH0 PUSH0 REVERT JUMPDEST POP PUSH2 0x16F PUSH2 0x2B0 JUMP JUMPDEST PUSH1 0x40 MLOAD PUSH2 0x17C SWAP2 SWAP1 PUSH2 0x62E JUMP JUMPDEST PUSH1 0x40 MLOAD DUP1 SWAP2 SUB SWAP1 RETURN JUMPDEST CALLVALUE DUP1 ISZERO PUSH2 0x190 JUMPI PUSH0 PUSH0 REVERT JUMPDEST POP PUSH2 0x1AB PUSH1 0x4 DUP1 CALLDATASIZE SUB DUP2 ADD SWAP1 PUSH2 0x1A6 SWAP2 SWAP1 PUSH2 0x705 JUMP JUMPDEST PUSH2 0x2D4 JUMP JUMPDEST STOP JUMPDEST PUSH2 0x1B5 PUSH2 0x3CB JUMP JUMPDEST STOP JUMPDEST CALLVALUE DUP1 ISZERO PUSH2 0x1C2 JUMPI PUSH0 PUSH0 REVERT JUMPDEST POP PUSH2 0x1CB PUSH2 0x585 JUMP JUMPDEST PUSH1 0x40 MLOAD PUSH2 0x1D8 SWAP2 SWAP1 PUSH2 0x5D6 JUMP JUMPDEST PUSH1 0x40 MLOAD DUP1 SWAP2 SUB SWAP1 RETURN JUMPDEST PUSH1 0x5 PUSH0 SWAP1 SLOAD SWAP1 PUSH2 0x100 EXP SWAP1 DIV PUSH1 0xFF AND DUP2 JUMP JUMPDEST PUSH1 0x4 SLOAD DUP2 JUMP JUMPDEST PUSH1 0x1 PUSH0 SWAP1 SLOAD SWAP1 PUSH2 0x100 EXP SWAP1 DIV PUSH20 0xFFFFFFFFFFFFFFFFFFFFFFFFFFFFFFFFFFFFFFFF AND DUP2 JUMP JUMPDEST PUSH1 0x3 SLOAD DUP2 JUMP JUMPDEST PUSH1 0x2 DUP1 SLOAD PUSH2 0x231 SWAP1 PUSH2 0x75D JUMP JUMPDEST DUP1 PUSH1 0x1F ADD PUSH1 0x20 DUP1 SWAP2 DIV MUL PUSH1 0x20 ADD PUSH1 0x40 MLOAD SWAP1 DUP2 ADD PUSH1 0x40 MSTORE DUP1 SWAP3 SWAP2 SWAP1 DUP2 DUP2 MSTORE PUSH1 0x20 ADD DUP3 DUP1 SLOAD PUSH2 0x25D SWAP1 PUSH2 0x75D JUMP JUMPDEST DUP1 ISZERO PUSH2 0x2A8 JUMPI DUP1 PUSH1 0x1F LT PUSH2 0x27F JUMPI PUSH2 0x100 DUP1 DUP4 SLOAD DIV MUL DUP4 MSTORE SWAP2 PUSH1 0x20 ADD SWAP2 PUSH2 0x2A8 JUMP JUMPDEST DUP3 ADD SWAP2 SWAP1 PUSH0 MSTORE PUSH1 0x20 PUSH0 KECCAK256 SWAP1 JUMPDEST DUP2 SLOAD DUP2 MSTORE SWAP1 PUSH1 0x1 ADD SWAP1 PUSH1 0x20 ADD DUP1 DUP4 GT PUSH2 0x28B JUMPI DUP3 SWAP1 SUB PUSH1 0x1F AND DUP3 ADD SWAP2 JUMPDEST POP POP POP POP POP DUP2 JUMP JUMPDEST PUSH0 PUSH0 SWAP1 SLOAD SWAP1 PUSH2 0x100 EXP SWAP1 DIV PUSH20 0xFFFFFFFFFFFFFFFFFFFFFFFFFFFFFFFFFFFFFFFF AND DUP2 JUMP JUMPDEST PUSH0 PUSH0 SWAP1 SLOAD SWAP1 PUSH2 0x100 EXP SWAP1 DIV PUSH20 0xFFFFFFFFFFFFFFFFFFFFFFFFFFFFFFFFFFFFFFFF AND PUSH20 0xFFFFFFFFFFFFFFFFFFFFFFFFFFFFFFFFFFFFFFFF AND CALLER PUSH20 0xFFFFFFFFFFFFFFFFFFFFFFFFFFFFFFFFFFFFFFFF AND EQ PUSH2 0x362 JUMPI PUSH1 0x40 MLOAD PUSH32 0x8C379A000000000000000000000000000000000000000000000000000000000 DUP2 MSTORE PUSH1 0x4 ADD PUSH2 0x359 SWAP1 PUSH2 0x7D7 JUMP JUMPDEST PUSH1 0x40 MLOAD DUP1 SWAP2 SUB SWAP1 REVERT JUMPDEST PUSH1 0x4 SLOAD DUP2 GT ISZERO PUSH2 0x3A7 JUMPI PUSH1 0x40 MLOAD PUSH32 0x8C379A000000000000000000000000000000000000000000000000000000000 DUP2 MSTORE PUSH1 0x4 ADD PUSH2 0x39E SWAP1 PUSH2 0x865 JUMP JUMPDEST PUSH1 0x40 MLOAD DUP1 SWAP2 SUB SWAP1 REVERT JUMPDEST DUP1 PUSH1 0x6 DUP2 SWAP1 SSTORE POP PUSH1 0x1 PUSH1 0x5 PUSH0 PUSH2 0x100 EXP DUP2 SLOAD DUP2 PUSH1 0xFF MUL NOT AND SWAP1 DUP4 ISZERO ISZERO MUL OR SWAP1 SSTORE POP POP JUMP JUMPDEST PUSH1 0x5 PUSH0 SWAP1 SLOAD SWAP1 PUSH2 0x100 EXP SWAP1 DIV PUSH1 0xFF AND PUSH2 0x419 JUMPI PUSH1 0x40 MLOAD PUSH32 0x8C379A000000000000000000000000000000000000000000000000000000000 DUP2 MSTORE PUSH1 0x4 ADD PUSH2 0x410 SWAP1 PUSH2 0x8CD JUMP JUMPDEST PUSH1 0x40 MLOAD DUP1 SWAP2 SUB SWAP1 REVERT JUMPDEST PUSH1 0x6 SLOAD CALLVALUE EQ PUSH2 0x45D JUMPI PUSH1 0x40 MLOAD PUSH32 0x8C379A000000000000000000000000000000000000000000000000000000000 DUP2 MSTORE PUSH1 0x4 ADD PUSH2 0x454 SWAP1 PUSH2 0x935 JUMP JUMPDEST PUSH1 0x40 MLOAD DUP1 SWAP2 SUB SWAP1 REVERT JUMPDEST PUSH0 PUSH0 PUSH0 SWAP1 SLOAD SWAP1 PUSH2 0x100 EXP SWAP1 DIV PUSH20 0xFFFFFFFFFFFFFFFFFFFFFFFFFFFFFFFFFFFFFFFF AND SWAP1 POP CALLER PUSH0 PUSH0 PUSH2 0x100 EXP DUP2 SLOAD DUP2 PUSH20 0xFFFFFFFFFFFFFFFFFFFFFFFFFFFFFFFFFFFFFFFF MUL NOT AND SWAP1 DUP4 PUSH20 0xFFFFFFFFFFFFFFFFFFFFFFFFFFFFFFFFFFFFFFFF AND MUL OR SWAP1 SSTORE POP PUSH0 PUSH1 0x5 PUSH0 PUSH2 0x100 EXP DUP2 SLOAD DUP2 PUSH1 0xFF MUL NOT AND SWAP1 DUP4 ISZERO ISZERO MUL OR SWAP1 SSTORE POP PUSH0 DUP2 PUSH20 0xFFFFFFFFFFFFFFFFFFFFFFFFFFFFFFFFFFFFFFFF AND CALLVALUE PUSH1 0x40 MLOAD PUSH2 0x4FE SWAP1 PUSH2 0x980 JUMP JUMPDEST PUSH0 PUSH1 0x40 MLOAD DUP1 DUP4 SUB DUP2 DUP6 DUP8 GAS CALL SWAP3 POP POP POP RETURNDATASIZE DUP1 PUSH0 DUP2 EQ PUSH2 0x538 JUMPI PUSH1 0x40 MLOAD SWAP2 POP PUSH1 0x1F NOT PUSH1 0x3F RETURNDATASIZE ADD AND DUP3 ADD PUSH1 0x40 MSTORE RETURNDATASIZE DUP3 MSTORE RETURNDATASIZE PUSH0 PUSH1 0x20 DUP5 ADD RETURNDATACOPY PUSH2 0x53D JUMP JUMPDEST PUSH1 0x60 SWAP2 POP JUMPDEST POP POP SWAP1 POP DUP1 PUSH2 0x581 JUMPI PUSH1 0x40 MLOAD PUSH32 0x8C379A000000000000000000000000000000000000000000000000000000000 DUP2 MSTORE PUSH1 0x4 ADD PUSH2 0x578 SWAP1 PUSH2 0x9DE JUMP JUMPDEST PUSH1 0x40 MLOAD DUP1 SWAP2 SUB SWAP1 REVERT JUMPDEST POP POP JUMP JUMPDEST PUSH1 0x6 SLOAD DUP2 JUMP JUMPDEST PUSH0 DUP2 ISZERO ISZERO SWAP1 POP SWAP2 SWAP1 POP JUMP JUMPDEST PUSH2 0x59F DUP2 PUSH2 0x58B JUMP JUMPDEST DUP3 MSTORE POP POP JUMP JUMPDEST PUSH0 PUSH1 0x20 DUP3 ADD SWAP1 POP PUSH2 0x5B8 PUSH0 DUP4 ADD DUP5 PUSH2 0x596 JUMP JUMPDEST SWAP3 SWAP2 POP POP JUMP JUMPDEST PUSH0 DUP2 SWAP1 POP SWAP2 SWAP1 POP JUMP JUMPDEST PUSH2 0x5D0 DUP2 PUSH2 0x5BE JUMP JUMPDEST DUP3 MSTORE POP POP JUMP JUMPDEST PUSH0 PUSH1 0x20 DUP3 ADD SWAP1 POP PUSH2 0x5E9 PUSH0 DUP4 ADD DUP5 PUSH2 0x5C7 JUMP JUMPDEST SWAP3 SWAP2 POP POP JUMP JUMPDEST PUSH0 PUSH20 0xFFFFFFFFFFFFFFFFFFFFFFFFFFFFFFFFFFFFFFFF DUP3 AND SWAP1 POP SWAP2 SWAP1 POP JUMP JUMPDEST PUSH0 PUSH2 0x618 DUP3 PUSH2 0x5EF JUMP JUMPDEST SWAP1 POP SWAP2 SWAP1 POP JUMP JUMPDEST PUSH2 0x628 DUP2 PUSH2 0x60E JUMP JUMPDEST DUP3 MSTORE POP POP JUMP JUMPDEST PUSH0 PUSH1 0x20 DUP3 ADD SWAP1 POP PUSH2 0x641 PUSH0 DUP4 ADD DUP5 PUSH2 0x61F JUMP JUMPDEST SWAP3 SWAP2 POP POP JUMP JUMPDEST PUSH0 DUP2 MLOAD SWAP1 POP SWAP2 SWAP1 POP JUMP JUMPDEST PUSH0 DUP3 DUP3 MSTORE PUSH1 0x20 DUP3 ADD SWAP1 POP SWAP3 SWAP2 POP POP JUMP JUMPDEST DUP3 DUP2 DUP4 MCOPY PUSH0 DUP4 DUP4 ADD MSTORE POP POP POP JUMP JUMPDEST PUSH0 PUSH1 0x1F NOT PUSH1 0x1F DUP4 ADD AND SWAP1 POP SWAP2 SWAP1 POP JUMP JUMPDEST PUSH0 PUSH2 0x689 DUP3 PUSH2 0x647 JUMP JUMPDEST PUSH2 0x693 DUP2 DUP6 PUSH2 0x651 JUMP JUMPDEST SWAP4 POP PUSH2 0x6A3 DUP2 DUP6 PUSH1 0x20 DUP7 ADD PUSH2 0x661 JUMP JUMPDEST PUSH2 0x6AC DUP2 PUSH2 0x66F JUMP JUMPDEST DUP5 ADD SWAP2 POP POP SWAP3 SWAP2 POP POP JUMP JUMPDEST PUSH0 PUSH1 0x20 DUP3 ADD SWAP1 POP DUP2 DUP2 SUB PUSH0 DUP4 ADD MSTORE PUSH2 0x6CF DUP2 DUP5 PUSH2 0x67F JUMP JUMPDEST SWAP1 POP SWAP3 SWAP2 POP POP JUMP JUMPDEST PUSH0 PUSH0 REVERT JUMPDEST PUSH2 0x6E4 DUP2 PUSH2 0x5BE JUMP JUMPDEST DUP2 EQ PUSH2 0x6EE JUMPI PUSH0 PUSH0 REVERT JUMPDEST POP JUMP JUMPDEST PUSH0 DUP2 CALLDATALOAD SWAP1 POP PUSH2 0x6FF DUP2 PUSH2 0x6DB JUMP JUMPDEST SWAP3 SWAP2 POP POP JUMP JUMPDEST PUSH0 PUSH1 0x20 DUP3 DUP5 SUB SLT ISZERO PUSH2 0x71A JUMPI PUSH2 0x719 PUSH2 0x6D7 JUMP JUMPDEST JUMPDEST PUSH0 PUSH2 0x727 DUP5 DUP3 DUP6 ADD PUSH2 0x6F1 JUMP JUMPDEST SWAP2 POP POP SWAP3 SWAP2 POP POP JUMP JUMPDEST PUSH32 0x4E487B7100000000000000000000000000000000000000000000000000000000 PUSH0 MSTORE PUSH1 0x22 PUSH1 0x4 MSTORE PUSH1 0x24 PUSH0 REVERT JUMPDEST PUSH0 PUSH1 0x2 DUP3 DIV SWAP1 POP PUSH1 0x1 DUP3 AND DUP1 PUSH2 0x774 JUMPI PUSH1 0x7F DUP3 AND SWAP2 POP JUMPDEST PUSH1 0x20 DUP3 LT DUP2 SUB PUSH2 0x787 JUMPI PUSH2 0x786 PUSH2 0x730 JUMP JUMPDEST JUMPDEST POP SWAP2 SWAP1 POP JUMP JUMPDEST PUSH32 0x4E6F7420746865207469636B6574206F776E6572000000000000000000000000 PUSH0 DUP3 ADD MSTORE POP JUMP JUMPDEST PUSH0 PUSH2 0x7C1 PUSH1 0x14 DUP4 PUSH2 0x651 JUMP JUMPDEST SWAP2 POP PUSH2 0x7CC DUP3 PUSH2 0x78D JUMP JUMPDEST PUSH1 0x20 DUP3 ADD SWAP1 POP SWAP2 SWAP1 POP JUMP JUMPDEST PUSH0 PUSH1 0x20 DUP3 ADD SWAP1 POP DUP2 DUP2 SUB PUSH0 DUP4 ADD MSTORE PUSH2 0x7EE DUP2 PUSH2 0x7B5 JUMP JUMPDEST SWAP1 POP SWAP2 SWAP1 POP JUMP JUMPDEST PUSH32 0x50726963652065786365656473203131302520616E74692D7363616C70696E67 PUSH0 DUP3 ADD MSTORE PUSH32 0x206C696D69742100000000000000000000000000000000000000000000000000 PUSH1 0x20 DUP3 ADD MSTORE POP JUMP JUMPDEST PUSH0 PUSH2 0x84F PUSH1 0x27 DUP4 PUSH2 0x651 JUMP JUMPDEST SWAP2 POP PUSH2 0x85A DUP3 PUSH2 0x7F5 JUMP JUMPDEST PUSH1 0x40 DUP3 ADD SWAP1 POP SWAP2 SWAP1 POP JUMP JUMPDEST PUSH0 PUSH1 0x20 DUP3 ADD SWAP1 POP DUP2 DUP2 SUB PUSH0 DUP4 ADD MSTORE PUSH2 0x87C DUP2 PUSH2 0x843 JUMP JUMPDEST SWAP1 POP SWAP2 SWAP1 POP JUMP JUMPDEST PUSH32 0x5469636B6574206973206E6F742063757272656E746C7920666F722073616C65 PUSH0 DUP3 ADD MSTORE POP JUMP JUMPDEST PUSH0 PUSH2 0x8B7 PUSH1 0x20 DUP4 PUSH2 0x651 JUMP JUMPDEST SWAP2 POP PUSH2 0x8C2 DUP3 PUSH2 0x883 JUMP JUMPDEST PUSH1 0x20 DUP3 ADD SWAP1 POP SWAP2 SWAP1 POP JUMP JUMPDEST PUSH0 PUSH1 0x20 DUP3 ADD SWAP1 POP DUP2 DUP2 SUB PUSH0 DUP4 ADD MSTORE PUSH2 0x8E4 DUP2 PUSH2 0x8AB JUMP JUMPDEST SWAP1 POP SWAP2 SWAP1 POP JUMP JUMPDEST PUSH32 0x496E636F7272656374207061796D656E7420616D6F756E740000000000000000 PUSH0 DUP3 ADD MSTORE POP JUMP JUMPDEST PUSH0 PUSH2 0x91F PUSH1 0x18 DUP4 PUSH2 0x651 JUMP JUMPDEST SWAP2 POP PUSH2 0x92A DUP3 PUSH2 0x8EB JUMP JUMPDEST PUSH1 0x20 DUP3 ADD SWAP1 POP SWAP2 SWAP1 POP JUMP JUMPDEST PUSH0 PUSH1 0x20 DUP3 ADD SWAP1 POP DUP2 DUP2 SUB PUSH0 DUP4 ADD MSTORE PUSH2 0x94C DUP2 PUSH2 0x913 JUMP JUMPDEST SWAP1 POP SWAP2 SWAP1 POP JUMP JUMPDEST PUSH0 DUP2 SWAP1 POP SWAP3 SWAP2 POP POP JUMP JUMPDEST POP JUMP JUMPDEST PUSH0 PUSH2 0x96B PUSH0 DUP4 PUSH2 0x953 JUMP JUMPDEST SWAP2 POP PUSH2 0x976 DUP3 PUSH2 0x95D JUMP JUMPDEST PUSH0 DUP3 ADD SWAP1 POP SWAP2 SWAP1 POP JUMP JUMPDEST PUSH0 PUSH2 0x98A DUP3 PUSH2 0x960 JUMP JUMPDEST SWAP2 POP DUP2 SWAP1 POP SWAP2 SWAP1 POP JUMP JUMPDEST PUSH32 0x5061796D656E74207472616E73666572206661696C6564000000000000000000 PUSH0 DUP3 ADD MSTORE POP JUMP JUMPDEST PUSH0 PUSH2 0x9C8 PUSH1 0x17 DUP4 PUSH2 0x651 JUMP JUMPDEST SWAP2 POP PUSH2 0x9D3 DUP3 PUSH2 0x994 JUMP JUMPDEST PUSH1 0x20 DUP3 ADD SWAP1 POP SWAP2 SWAP1 POP JUMP JUMPDEST PUSH0 PUSH1 0x20 DUP3 ADD SWAP1 POP DUP2 DUP2 SUB PUSH0 DUP4 ADD MSTORE PUSH2 0x9F5 DUP2 PUSH2 0x9BC JUMP JUMPDEST SWAP1 POP SWAP2 SWAP1 POP JUMP INVALID LOG2 PUSH5 0x6970667358 0x22 SLT KECCAK256 0xD7 0xAB SDIV 0xBD BLOBBASEFEE DATALOADN 0x3A54 DUP6 0xAF SLOAD 0x28 0xF6 CLZ CODECOPY ORIGIN BLOCKHASH RJUMPI 0x16DC MSIZE PUSH15 0xE6DFEB67BA1E3C27031464736F6C63 NUMBER STOP ADDMOD 0x1F STOP CALLER "
				},
				"gasEstimates": {
					"creation": {
						"codeDepositCost": "522000",
						"executionCost": "infinite",
						"totalCost": "infinite"
					},
					"external": {
						"buyTicket()": "infinite",
						"currentOwner()": "2529",
						"eventName()": "infinite",
						"eventOrganizer()": "2553",
						"isForSale()": "2467",
						"listForSale(uint256)": "51119",
						"maxResalePrice()": "2448",
						"originalPrice()": "2492",
						"salePrice()": "2513"
					}
				},
				"methodIdentifiers": {
					"buyTicket()": "edca914c",
					"currentOwner()": "b387ef92",
					"eventName()": "8043c9c0",
					"eventOrganizer()": "7514d7cb",
					"isForSale()": "20b08dc2",
					"listForSale(uint256)": "c7857fb5",
					"maxResalePrice()": "39e9e8eb",
					"originalPrice()": "76a24f25",
					"salePrice()": "f51f96dd"
				}
			},
			"storageLayout": {
				"storage": [
					{
						"astId": 4,
						"contract": "TicketProtocol.sol:Ticket",
						"label": "currentOwner",
						"offset": 0,
						"slot": "0",
						"type": "t_address"
					},
					{
						"astId": 6,
						"contract": "TicketProtocol.sol:Ticket",
						"label": "eventOrganizer",
						"offset": 0,
						"slot": "1",
						"type": "t_address"
					},
					{
						"astId": 8,
						"contract": "TicketProtocol.sol:Ticket",
						"label": "eventName",
						"offset": 0,
						"slot": "2",
						"type": "t_string_storage"
					},
					{
						"astId": 10,
						"contract": "TicketProtocol.sol:Ticket",
						"label": "originalPrice",
						"offset": 0,
						"slot": "3",
						"type": "t_uint256"
					},
					{
						"astId": 12,
						"contract": "TicketProtocol.sol:Ticket",
						"label": "maxResalePrice",
						"offset": 0,
						"slot": "4",
						"type": "t_uint256"
					},
					{
						"astId": 14,
						"contract": "TicketProtocol.sol:Ticket",
						"label": "isForSale",
						"offset": 0,
						"slot": "5",
						"type": "t_bool"
					},
					{
						"astId": 16,
						"contract": "TicketProtocol.sol:Ticket",
						"label": "salePrice",
						"offset": 0,
						"slot": "6",
						"type": "t_uint256"
					}
				],
				"types": {
					"t_address": {
						"encoding": "inplace",
						"label": "address",
						"numberOfBytes": "20"
					},
					"t_bool": {
						"encoding": "inplace",
						"label": "bool",
						"numberOfBytes": "1"
					},
					"t_string_storage": {
						"encoding": "bytes",
						"label": "string",
						"numberOfBytes": "32"
					},
					"t_uint256": {
						"encoding": "inplace",
						"label": "uint256",
						"numberOfBytes": "32"
					}
				}
			},
			"userdoc": {
				"kind": "user",
				"methods": {},
				"version": 1
			}
		}
	}
}